S021000041646170746976655F445F31342E30322E32315F776F726B732E73726563B8
S113000060210020FD310000913200009132000097
S113001000000000000000000000000000000000DC
S11300200000000000000000000000009132000009
S11300300000000000000000913200009132000036
S113004091320000913200009132000091320000A0
S113005091320000AD0B000091320000913200009B
S1130060A5170000BD170000D5170000ED1700000C
S1130070051800001D1800009132000091320000A4
S11300809132000091320000913200009132000060
S11300909132000091320000913200009132000050
S11300A09132000091320000913200009132000040
S11300B00000000010B5064C2378002B07D1054B37
S11300C0002B02D0044800E000BF0123237010BDC0
S11300D0200000200000000034620000084B10B52E
S11300E0002B03D00749084800E000BF0748036815
S11300F0002B00D110BD064B002BFBD09847F9E72D
S1130100000000002400002034620000346200007B
S11301100000000080B582B000AF104B1B68002BBC
S113012012D1EFF310837B607B68002B09D172B688
S1130130BFF35F8F0A4B00221A700A4B01221A7018
S113014002E0084B00221A70044B1B685A1C034B34
S11301501A60C046BD4602B080BDC0463C000020C7
S1130160000000204000002080B500AF0B4B1B684E
S11301705A1E0A4B1A60094B1B68002B0AD1084B04
S11301801B78DBB2002B05D0064B01221A70BFF39B
S11301905F8F62B6C046BD4680BDC0463C000020AD
S11301A0400000200000002080B582B000AF7860DD
S11301B07B6800221A70C046BD4602B080BD0000B4
S11301C080B582B000AF02003960FB1D1A70FB1DC0
S11301D01B78042B27D89A00164BD3181B689F460C
S11301E0154B154A51693A680A435A611DE0124B8E
S11301F0114A91693A680A439A6116E00E4B0E4A15
S1130200D1693A680A43DA610FE00B4B0A4A116A72
S11302103A680A431A6208E0074B074A516A3A6887
S11302200A435A6201E0172300E000231800BD4688
S113023002B080BDF05E00000004004080B582B0D2
S113024000AF78607B6880221A707B6800225A7045
S11302507B6801229A707B680022DA70C046BD4632
S113026002B080BD80B582B000AF0200FB1D1A70E1
S1130270FB1D1B78002B02D0012B07D00DE0084B8F
S1130280074AD26902210A43DA6106E0044B044AB0
S1130290D26904210A43DA61C046BD4602B080BD7A
S11302A00014004080B584B000AF78607B681B68A0
S11302B0FB60FB681B8C9BB2002B01D0012300E088
S11302C000231800BD4604B080BD000080B584B092
S11302D000AF78600E4BBB600023FB6010E0FB684E
S11302E09B0010229446BC446344083B1A687B6814
S11302F09A4202D1FB68DBB206E0FB680133FB6083
S1130300FB68002BEBD000231800BD4604B080BD71
S1130310000C004380B582B000AF78607B68002297
S11303201A707B6800225A707B6800229A707B687E
S11303300022DA707B6800221A837B6800221A622A
S11303407B680022DA617B6801221A717B68C02213
S11303505201DA807B6800221A727B6800225A728A
S11303607B6800229A727B680022DA727B68002222
S11303701A737B682A22002199547B6800225A73DD
S11303807B6800229A737B680022DA737B68002200
S11303901A617B6800221A757B6824220021995413
S11303A07B680022DA847B6800221A857B6800223D
S11303B05A75C046BD4602B080BD000080B59CB0F1
S11303C000AF02003960FB1D1A700C23FA18164B9B
S11303D01000190060231A00144B9847144BFB6655
S11303E013223B689A421AD30C23FB183A689200F2
S11303F0D358FB660823FB1818000E4B98470823B4
S1130400FB1800229A700823FB1801221A70FB6E55
S1130410DBB20822BA1811001800074B9847C046EF
S1130420BD461CB080BDC046045F0000DD5E000018
S1130430FFFF00003D0200000527000080B58AB0E0
S113044000AFB9607A600F23FB18021C1A702723CF
S1130450FB1800221A7010233B621F23FB18002292
S11304601A70BB681B68BB611423FB181800C54BCA
S113047098477B681A781423FB181A701E221423D9
S1130480FB1819001000C04B98471E231800BF4BDF
S113049098477B681B791A000F23FB181B781100FF
S11304A01800BB4B98477B68DB881A000F23FB18A6
S11304B01B7811001800B64B98471E23FB18002226
S11304C01A701AE07B681B691E22BA18127801217F
S11304D091400A00134009D01E23FB181A780F23F9
S11304E0FB181B7811001800A94B98471E23FB1812
S11304F01A781E23FB1801321A701E23FB181B786E
S113050013229342DED97B685B7B9B015AB27B68E2
S11305109B7BDB015BB213435BB2DAB2BB691A703B
S11305207B681B7DDB015AB27B685B785BB213434B
S11305305BB2DAB2BB699A707B68DB78342B46D83D
S11305409A00944BD3181B689F462723FB187A689C
S1130550527A1A701F23FB187A68127A1A701023C1
S11305603B6236E02723FB1801221A701F23FB1875
S113057002221A7010233B622BE02723FB1802226D
S11305801A701F23FB1804221A7010233B6220E008
S11305902723FB1801221A701F23FB1806221A7046
S11305A010233B6215E02723FB1800221A701F2337
S11305B0FB1808221A7010233B620AE030233B62C6
S11305C007E020233B6204E000233B6201E01723A1
S11305D0A7E12723FB181B781B01DBB27022134011
S11305E0DAB21F23FB181B781343DAB2BB691A7300
S11305F0C046BB681800684B9847031EF9D17B6856
S11306005B7D3F2B01D917238BE17B685B7D5AB25D
S11306107B68DB7BDB015BB213435BB2DAB2BB69A1
S11306205A73C046BB6818005B4B9847031EF9D148
S11306307B689A78BB695A707B6824229B5C9BB266
S1130640DB009AB23B6A9BB213439AB27B681B7B72
S11306509BB29B009BB213439AB27B689B7A9BB27A
S1130660DB189BB213439AB27B68DB7A9BB21343C9
S11306709AB2BB695A81C046BB681800464B98477A
S1130680031EF9D17B681B8B002B00D1BFE03B6AB2
S1130690102B00D18EE002D8002B4DD0B7E0202BD8
S11306A023D0302B00D0B2E07B68DB7A002B11D052
S11306B07B68DB697F2B0BDC7B68DB69803307DBC2
S11306C07B681B6A7F2B03DC7B681B6A803301DA3F
S11306D0172326E17B68DB69FF2B04DC7B681B6A3C
S11306E0FF2B00DC8CE017231BE17B68DB7A002BFB
S11306F015D07B68DB69294A93420EDC7B68DB6991
S1130700274A934209DB7B681B6A244A934204DC30
S11307107B681B6A224A934201DA172301E17B6852
S1130720DB69204A934205DC7B681B6A1D4A9342BD
S113073000DC67E01723F4E07B68DB7A002B15D03C
S11307407B68DB69184A93420EDC7B68DB69174AD5
S1130750934209DB7B681B6A134A934204DC7B687F
S11307601B6A124A934201DA1723DAE07B68DB69D9
S11307700F4A934204DC7B681B6A0D4A934243DDB3
S11307801723CEE0A90100005124000091240000A9
S1130790BD030000645F0000A5020000FF0100002B
S11307A000FEFFFFFF030000FF07000000F8FFFF4B
S11307B0FF0F00007B68DB7A002B15D07B68DB69B8
S11307C05A4A93420EDC7B68DB69594A934209DB3F
S11307D07B681B6A554A934204DC7B681B6A544A53
S11307E0934201DA17239CE07B68DB69514A934208
S11307F004DC7B681B6A4F4A934207DD172390E0B1
S1130800C04604E0C04602E0C04600E0C046BB6902
S11308105B899AB27B681B8B13439AB2BB695A817A
S1130820C046BB681800444B9847031EF9D17B6847
S1130830DB699AB2BB69DA81C046BB6818003E4BDB
S11308409847031EF9D17B681B6A9AB2BB691A8266
S1130850C046BB681800384B9847031EF9D17B6823
S1130860DA887B681B799BB213439AB2BB691A81FD
S1130870C046BB681800304B9847031EF9D17B680B
S11308802A229A5CBB69DA70BB6907221A717B68F9
S113089024229B5C002B2CD07B68DB8C274A934260
S11308A001D917233DE07B68DA8CBB695A82C046C4
S11308B0BB681800204B9847031EF9D17B68282297
S11308C09B5E1F4A934205DC7B6828229B5E1D4A7F
S11308D0934201DA172324E07B6828229B5E9AB2B4
S11308E0BB699A82C046BB681800134B9847031E25
S11308F0F9D1154B1B680022D3409BB21B029AB25C
S1130900E023DB0013409AB20F4B1B680321CB405A
S11309109BB207210B409BB213439AB2BB699A85E1
S113092000231800BD460AB080BDC046FF7F00000A
S11309300080FFFFFFFF0000A5020000FF0F000082
S1130940FF07000000F8FFFF2060800090B587B02B
S113095000AFF860B9607A601723FC18BB68180010
S11309601D4B984703002370FB68BA681A6008217E
S113097003201A4B9847BB681B78DBB21A0001238B
S1130980134001D0052323E0C046FB681800144B34
S11309909847031EF9D1BB681B78DBB21A00022307
S11309A0134001D01C2313E07B685A78FB681A714A
S11309B0FB681B79002B02D101200A4B98477A6807
S11309C0F9681723FB181B781800074B9847030096
S11309D01800BD4607B090BDCD020000C101000063
S11309E0A5020000650200003D04000080B582B04D
S11309F000AF7860044B044A11697A680A431A61AB
S1130A00C046BD4602B080BD0004004080B500AFC2
S1130A10024B9847C046BD4680BDC0461501000044
S1130A2080B500AF024B9847C046BD4680BDC04666
S1130A306901000080B582B000AF0200FB1D1A708E
S1130A40064BFA1D127811001F220A400121914021
S1130A500A001A60C046BD4602B080BD00E100E055
S1130A6080B584B000AFFB1D00221A70214B98475B
S1130A70214B5B68BB600F23FB1800221A7022E035
S1130A80BB680122134014D11B4B5B680F22BA18B8
S1130A901278012191400A001A43174B5A60164BF1
S1130AA01B7A013BDAB2144B1A72FB1D01221A7035
S1130AB00EE0BB685B08BB600F23FB180F22BA185B
S1130AC0127801321A700F23FB181B78042BD7D924
S1130AD00A4B9847FB1D1B7801225340DBB2002BC5
S1130AE001D0FF2302E00F23FB181B781800BD463A
S1130AF004B080BD0D0A000004000020210A00009B
S1130B0080B584B000AF78603960254B9847254A9A
S1130B107B681B780F210B40D9B23F23D154214B62
S1130B20204A126979680978080001218140C94383
S1130B300A401A613B681B785B011A0060231A4063
S1130B403B685B781B021900FC239B010B401A4392
S1130B503B689B789B051900C0231B040B4013437F
S1130B60FB603B681B79002B09D03B681B791A009A
S1130B7007231A40FB68134308221343FB603B68B6
S1130B805B79002B03D0FB6810221343FB60054BF9
S1130B90FA685A64044B9847C046BD4604B080BD09
S1130BA00D0A000000040044210A000080B586B04C
S1130BB000AF494B9847494B1B8C9BB2DAB21723C1
S1130BC0FB180F210A401A701723FB181A78444B9C
S1130BD09200D3583B61414A3B691B780F210B407B
S1130BE0D9B23F23D1543D490F23FB184E228A5CCE
S1130BF01A703B691B783B4A1B01D31802331B88CC
S1130C009BB2BB603B691B78374A1B01D318023384
S1130C101B889BB27B60BA687B68D21A3B695A61B5
S1130C200F23FB181B780122134016D02B4A4E23A6
S1130C300121D1543B6910225A743B691B7C1A0070
S1130C400123134042D03B695B68002B3ED03B69D3
S1130C505B683A691000984738E00F23FB181B784B
S1130C600222134016D01D4A4E230221D1543B695F
S1130C7000225A743B691B7C1A000223134025D0BE
S1130C803B699B68002B21D03B699B683A69100043
S1130C9098471BE00F23FB181B780422134015D040
S1130CA00E4A4E230421D1543B6906225A743B69EF
S1130CB01B7C1A000423134008D03B69DB68002B1B
S1130CC004D03B69DB683A6910009847074B9847A2
S1130CD0C046BD4606B080BD0D0A000000040044B5
S1130CE0440000200000003050000030210A0000C1
S1130CF080B582B000AF78607B6800221A707B6890
S1130D0000225A707B6803229A707B6800221A7151
S1130D107B6800225A717B680022DA70C046BD46A7
S1130D2002B080BD90B585B000AF786039603A4BB1
S1130D3098473A4B1B78DBB201225340DBB2002BBD
S1130D401BD080231B011800354B9847354A354B7F
S1130D501B889BB202218B439BB21380314B01222F
S1130D601A80304B304A5A632E4B304A9A632D4BCB
S1130D702F4A1A80294B01221A700F23FC182D4B7D
S1130D809847030023700F23FB181B78FF2B03D114
S1130D90294B984714233BE07B680F22BA1812783A
S1130DA01A70204A7B681B780F210B40D9B23F236D
S1130DB0D1541C4A1B494023CB5CDBB202218B4338
S1130DC0D9B24023D154174A40230121D1543B685E
S1130DD0DB78002B09D0134A12494023CB5CDBB2E9
S1130DE040210B43D9B24023D1543A687B681100A7
S1130DF01800124B98477B6800229A617B681B7825
S1130E001A000F4B92007968D1500B4B984700237E
S1130E101800BD4605B090BD0D0A00000400002076
S1130E20ED090000000400440000003050000030D0
S1130E30020F0000610A0000210A0000010B0000FB
S1130E404400002080B582B000AF7860244B9847FE
S1130E507B685B7CDBB2052B03D1224B98470523CF
S1130E603AE07B689B695B889BB2002B03D11D4BE6
S1130E709847172330E005201B4B98471B4A7B6893
S1130E801B780F210B40D9B23F23D154174A7B68FA
S1130E901B781900164B5B5C07210B40D9B24D231C
S1130EA0D1547B6805225A747B681B781A01114B54
S1130EB0D0187B689B69102219000F4B98470B4A86
S1130EC00A494023CB5CDBB202210B43D9B2402355
S1130ED0D154044B984700231800BD4602B080BD8E
S1130EE00D0A0000210A0000350A00000004004435
S1130EF05800002000000030DD5E000080B582B0A4
S1130F0000AF786039603B6819787A681388081CE8
S1130F100121084001218B43191C031C0B4313803E
S1130F203B685B781A1C03231340D9B27A68138890
S1130F30081C03210140481806218B43191C031C7B
S1130F400B4313803B689B781A1C03231340D9B2CC
S1130F507A681388081C03210140C80018218B43B8
S1130F60191C031C0B4313803B68DB781A1C0323F6
S1130F701340D9B27A681388081C0321014008027F
S1130F802B490B40191C031C0B4313803B68197934
S1130F907A681388081C01210140880225490B4006
S1130FA0191C031C0B4313803B6859797A68138816
S1130FB0081C01210140C8021F490B40191C031CD5
S1130FC00B4313803B689B791A1C01231340D9B24D
S1130FD07A681388081C01210140080317490B4053
S1130FE0191C031C0B4313803B68DB791A1C072371
S1130FF01340D9B27A6813884803DB04DB0C191C4C
S1131000031C0B4313803B681A897B685A803B6836
S1131010DA687B685A603B681A697B689A603B6847
S11310205A697B68DA60C046BD4602B080BDC046DE
S1131030FFFCFFFFFFFBFFFFFFF7FFFFFFEFFFFFDB
S113104080B584B000AF786039607B689B69FB60D1
S11310507B685B7CDBB2052B01D1052311E0FB68C7
S1131060002B06D17B683A689A6109E0FB68DB686B
S1131070FB60FB68DB68002BF8D13A68FB68DA6038
S113108000231800BD4604B080BD80B582B000AF17
S113109078607B6880221A707B6800225A707B68B3
S11310A001229A707B680022DA70C046BD4602B005
S11310B080BD000080B584B000AF02003960FB1D24
S11310C01A700C23FB181800104B98470C23FB18BC
S11310D080221A703B681A780C23FB185A703B68FC
S11310E05A780C23FB189A703B689A780C23FB18E7
S11310F0DA700C23FA18FB1D1B7811001800044B3E
S11311009847C046BD4604B080BDC0468B10000061
S11311100527000080B582B000AF78607B680022AC
S11311201A70C046BD4602B080BDF0B58DB000AFA8
S1131130B860F9603A607B60002300243B627C6203
S113114000230024BB61FC613F23FB6253E0FB6A84
S1131150203B002B04DB01229A4013007B610BE04F
S1131160FB6A2022D31A0122DA4013000021FA6A12
S113117091400A0013437B610122FB6A9A401300E9
S11311803B61BB69FC69DB186441BB61FC61BB6802
S11311903A691A401500FB687A691A4016002B0058
S11311A0334307D0BB6901221343BB61FB690022AF
S11311B01343FB617A68FB699A4219D87A68FB6920
S11311C09A4203D13A68BB699A4211D8B969FA695B
S11311D03B687C68C91AA2410B001400BB61FC6126
S11311E03A6A3B6913433B627A6A7B6913437B62C5
S11311F0FB6A013BFB62FB6A002BA8DA3B6A7C6A50
S113120018002100BD460DB0F0BD80B586B000AF1A
S1131210F860B9607A601623FB1800221A80BB6854
S11312203B61BB685A08FB689A4201D2402326E01E
S1131230BB685B083B610AE03A69FB68D31A3B610F
S11312401623FB181A881623FB1801321A803A69F0
S1131250FB689A42F0D21623FB181622BA18128899
S1131260013A1A801623FB181B88FF2B01D940234F
S113127005E07B681622BA1812881A800023180029
S1131280BD4606B080BD0000F0B5A1B000AFF86463
S1131290B9647A644322BA181370002300243B67AC
S11312A07C6700230024BB66FC6600230024BB6724
S11312B0FC6700237B66582340229446BC44634465
S11312C01A78FB6C5A43BB6C9A4201D94023B3E0B1
S11312D04323FB181B78002B3DD15823402294460E
S11312E0BC4463441B78DBB23B6100237B61FB6C31
S11312F0BB600023FB60524CBA68FB6838697969AB
S1131300A04703000C001B00FB650023BB65BB6CFE
S11313103B6000237B60B86DF96D3A687B68494C8B
S1131320A04703000C003B677C67002101223B6F50
S11313307C6FC91AA2410B001400BB66FC66BB6E2D
S11313401B0CFA6E16041E43BB6E1D043300BB67F0
S11313500023FB676AE04323FB181B78012B65D14C
S1131360FB6C3B6300237B63582340229446BC44BC
S113137063441B78DBB2BB620023FB62304CBA6A65
S1131380FB6A386B796BA04703000C00BB65FC65F6
S1131390BB6C3B6200237B62BB6DFC6D1A002300B7
S11313A0386A796A274CA04703000C007B667A6E82
S11313B080239B019A4201D940233DE0BB6CBB6171
S11313C00023FB61B969FA690B005B0F1000C000D0
S11313D0F863F86B1843F8630B00DB00BB63BB6D69
S11313E0FC6D1A002300B86BF96B164CA047030080
S11313F00C00BB65FC65BB6DFC6DD9B27B6EDBB2CA
S1131400DB00DAB2172340208446BC4463448A1AC2
S11314101A70172340229446BC4463441B785B0330
S11314201A007B6E1343BB670023FB67BB6FFC6F23
S11314309AB27B6C1A8000231800BD4621B0F0BD1F
S1131440614200002B11000080B584B000AF02009F
S1131450FB1D1A70BB1D0A1C1A701A4B1B78012243
S11314605340DBB2002B03D1BB1D1B78002B1BD0D8
S11314700C23FB181800144B98470C23FB18FA1D77
S113148012781A700C23FB18190011200F4B98477F
S113149011200F4B98470B4BFA1D12785A70094BC9
S11314A001221A70002308E0064B5B78FA1D1278BB
S11314B09A4201D1002300E01D231800BD4604B068
S11314C080BDC046600000201511000051240000BA
S11314D09124000080B582B000AF78600A00FB1C44
S11314E01A707B684E4A934240D04D4A934207D8C3
S11314F08422D20593420FD04A4A934221D089E0F4
S1131500494A934200D15BE0484A934200D16CE0DF
S1131510474A93423FD07DE0FB1C1B78012B0AD045
S113152002DC002B05D075E0022B06D0032B06D07D
S113153070E0404B6FE0404B6DE0404B6BE0404B44
S113154069E0FB1C1B78012B0AD002DC002B05D0C0
S113155060E0022B06D0032B06D05BE003235AE0A5
S1131560384B58E0384B56E0384B54E0FB1C1B78A2
S1131570012B0AD002DC002B05D04BE0022B06D055
S1131580032B06D046E0324B45E0324B43E0324B6E
S113159041E0324B3FE0FB1C1B78012B0AD002DCFC
S11315A0002B05D036E0022B06D0032B06D031E009
S11315B02B4B30E02B4B2EE02B4B2CE02B4B2AE01B
S11315C0FB1C1B78012B0AD002DC002B05D021E088
S11315D0022B06D0032B06D01CE0254B1BE0254B29
S11315E019E0254B17E0254B15E0FB1C1B78012B5C
S11315F00AD002DC002B05D00CE0022B06D0032B12
S113160006D007E01E4B06E01E4B04E01E4B02E032
S11316101E4B00E000231800BD4602B080BDC0464A
S1131620000800420004004200100042000400438D
S1131630000C004203000400030005000300060040
S1131640030007000300010003001E0003001F0045
S1131650030008000300090003000A0003000B0054
S11316600300100003001100030012000300130024
S113167003000C0003000D0003000E0003000F0024
S113168003001600030017000300180003001900EC
S113169090B58BB000AF78600C23FB180F4A13CAC7
S11316A013C313CA13C300237B620EE00C23FB187D
S11316B07A6A9200D3581A007B689A4202D17B6AF4
S11316C0DBB206E07B6A01337B627B6A052BEDD9D2
S11316D000231800BD460BB090BDC0463860000022
S11316E080B582B000AF0200FB1D1A70C046BD4633
S11316F002B080BD80B584B000AF02003960FB1D2C
S11317001A70134B1B7801225340DBB2002B15D007
S11317100023FB600CE00F4BFA6892000E49D15095
S11317200E4BFA6892000021D150FB680133FB6034
S1131730FB68052BEFD9064B01221A70FB1D1A78A2
S1131740044B92003968D150C046BD4604B080BDF8
S11317506200002064000020E1160000A0000020C8
S113176090B585B000AF78600823FB180B4A116868
S1131770196092889A800F23FC187B681800084B24
S11317809847030023700F23FB181B780822BA180C
S1131790D35C5BB21800BD4605B090BD506000003C
S11317A09116000080B500AF034B1B6800209847DA
S11317B0C046BD4680BDC0466400002080B500AF71
S11317C0034B5B6801209847C046BD4680BDC046B8
S11317D06400002080B500AF034B9B68022098474B
S11317E0C046BD4680BDC0466400002080B500AF41
S11317F0034BDB6803209847C046BD4680BDC04606
S11318006400002080B500AF034B1B690420984797
S1131810C046BD4680BDC0466400002080B500AF10
S1131820034B5B6905209847C046BD4680BDC04652
S11318306400002080B582B000AF78607B6800222D
S11318401A70C046BD4602B080BD000080B582B0AB
S113185000AF02003960FB1D1A70FB1D1B78042BBE
S113186027D89A00164BD3181B689F46154B154A68
S113187051693A680A435A611DE0124B114A916951
S11318803A680A439A6116E00E4B0E4AD1693A68E7
S11318900A43DA610FE00B4B0A4A116A3A680A43B9
S11318A01A6208E0074B074A516A3A680A435A62C7
S11318B001E0172300E000231800BD4602B080BDFC
S11318C0586000000004004080B582B000AF78602A
S11318D07B6880221A707B6800225A707B68012220
S11318E09A707B680022DA70C046BD4602B080BDA3
S11318F080B500AF054B9B78DBB21A00022313407E
S11319005A1E9341DBB21800BD4680BD0020004141
S113191080B584B000AF78607B681B68FB60FB68AF
S1131920DB695A1E9341DBB21800BD4604B080BD8A
S113193080B582B000AF7860C0467B681800044B65
S11319409847031EF9D1C046BD4602B080BDC046CB
S113195011190000B0B58CB002AF786039607B68B3
S11319601B687B617B681B681800AC4B98470300BD
S11319703B613B69052B02D118237B6202E03B6982
S113198012337B6200233B620023FB610A23FB18B2
S113199000221A801B23FB1800221A701A23FB183A
S11319A010221A703B681B8A8022D20193421CD0F9
S11319B08022D201934206DC002B0DD080229201BA
S11319C0934224D035E0C022D201934228D0802211
S11319D01202934212D02CE01B23FB1800221A702F
S11319E01A23FB1810221A7023E01B23FB18002271
S11319F01A701A23FB1808221A701AE01B23FB180A
S1131A0000221A701A23FB1803221A7011E01B23F8
S1131A10FB1801221A701A23FB1810221A7008E00E
S1131A201B23FB1801221A701A23FB1808221A70B0
S1131A30C0463B681A683B68DB681A433B685B69CD
S1131A4013433A68128A13433A68127E120213430C
S1131A503A682621525C520713433B621923FB1850
S1131A6000221A703B685B68FB60FB68002B1ED089
S1131A708022520593424FD13B6827229B5C01226E
S1131A805340DBB2002B46D03B681D6A7B6ADBB255
S1131A901800634B984701001923FC180A23FB180C
S1131AA01A0028005F4B98470300237033E03B681B
S1131AB027229B5C002B14D03B68186A3B68996A08
S1131AC01923FC181B23FB181D780A23FA181A2360
S1131AD0FB181B7800932B00534DA8470300237079
S1131AE01AE03B681D6A7B6ADBB218004C4B9847CE
S1131AF01923FC181B23FB1819780A23FA181A2334
S1131B00FB181B7800930B0001002800464DA847E2
S1131B100300237000E0C0461923FB181B78002B38
S1131B2003D01923FB181B7873E03B685B7E002B02
S1131B3003D03B689A7E7B699A730A23FB181A8840
S1131B407B699A813A6AFB6813433B623B682722AC
S1131B509B5C01225340DBB2002B03D03B6A04227E
S1131B6013433B623B685B7E9A023B681B7F5B02CC
S1131B701A433B685B7F1B021A433B6824215B5C6E
S1131B805B041A433B6825215B5C1B041343FB6124
S1131B903B689B7A1A00FB691343FB613B68DB7A61
S1131BA01A00FB691343FB613B681B89FF2B0BD0B5
S1131BB03B6A8022520413433B623B681B891A0030
S1131BC0FB691343FB6108E03B68DB7E002B04D018
S1131BD03B6A8022D20413433B623B682C229B5C09
S1131BE0002B03D1114B9847031E03D03B6A80227C
S1131BF013433B627B6818000D4B98477B69FA6975
S1131C005A607B6818000A4B98477B693A6A1A60E5
S1131C1000231800BD460AB0B0BDC04691160000AE
S1131C20412500000B12000089120000F118000089
S1131C303119000090B593B000AFF860B9607A60D4
S1131C403323FB1800221A70FB68BA681A60FB6819
S1131C501B68FB62FB681B6818008F4B98470300E6
S1131C60BB62BB6A052B04D101237B6418233B644C
S1131C7004E0BB6A7B64BB6A12333B64FB6A1B6887
S1131C800122134001D0052302E1FB6A1B680222F2
S1131C90134001D01C23FBE0BB6A052B08D10122B1
S1131CA07B6C9A401300190003207C4B984707E093
S1131CB001227B6C9A40130019000220774B98474D
S1131CC02423FB181800764B98477B682D229A5CD6
S1131CD02423FB181A703B6CDBB22422BA181100BF
S1131CE01800704B98473B6CDBB218006E4B98475A
S1131CF07B682D229B5C002118006C4B98477B6805
S1131D00DA7AFB685A717B6824229A5CFB689A71C0
S1131D107B6825229A5CFB68DA717B68DA7EFB6853
S1131D201A727B681A7FFB685A723323FC187A682C
S1131D30FB68110018005E4B98470300237033239F
S1131D40FB181B78002B03D03323FB181B789FE070
S1131D502023FB181800574B98472023FB18002218
S1131D605A702023FB1800229A707B681A6B102388
S1131D70FB181A607B685A6B1023FB185A607B6847
S1131D809A6B1023FB189A607B68DA6B1023FB189C
S1131D90DA603F23FB1800221A702CE03F23FB1863
S1131DA01A781023FB189200D358BB63BB6B002B2B
S1131DB009D13F23FB181A78BB68110018003E4B69
S1131DC098470300BB63BB6B01330DD0BB6BDAB226
S1131DD02023FB181A70BB6B1B0CDBB22022BA1831
S1131DE011001800354B98473F23FB181A783F23FE
S1131DF0FB1801321A703F23FB181B78032BCDD933
S1131E0000237B630AE0FA687B6B02339B00D318E0
S1131E10043300221A607B6B01337B637B6B052BDD
S1131E20F1D9FB6800229A62FB6800225A62FB68BF
S1131E300022DA85FB6800229A85FB6830220021A3
S1131E409954FB68312200219954FB683222002105
S1131E509954FB68332200219954FB681B6827229C
S1131E60BC1818000C4B984703002370144A27230E
S1131E70FB181B7811001800124B98472723FB18F6
S1131E801A78114B9200F968D1503323FB181B7850
S1131E901800BD4613B090BD911600004D18000007
S1131EA0351800005124000091240000491400005A
S1131EB055190000C9180000D514000005270000BA
S1131EC0111F0000F5160000A000002080B584B0AA
S1131ED000AF78607B681B68FB60FB68DB695A1E97
S1131EE09341DBB21800BD4604B080BD80B582B01A
S1131EF000AF7860C0467B681800044B9847031E07
S1131F00F9D1C046BD4602B080BDC046CD1E00001A
S1131F1080B588B000AF0200FB1D1A70FB1D1A7853
S1131F20A34B9200D358BB61BB691B687B61BB693F
S1131F301800A04B98477B691B7EDAB21223FB186A
S1131F401A807B699B7DDBB29AB21223FB181221A3
S1131F50791809880A401A80BB6930229B5CBA69E7
S1131F603121525C1340DAB21023FB181A80122379
S1131F70FB181B880122134044D0BB69DB8D9BB244
S1131F80002B3CD0BB699B6A1B78DAB21C23FB187C
S1131F901A80BB699B6A5A1CBB699A62BB695B79EC
S1131FA0012B13D1BB699B6A1B78DBB21B021AB2EB
S1131FB01C23FB1800215B5E13431AB21C23FB187D
S1131FC01A80BB699B6A5A1CBB699A621C23FB1862
S1131FD01B88DB05DB0D9AB27B691A85BB69DB8D37
S1131FE09BB2013B9BB2BA69191CD185002B09D164
S1131FF07B6901221A757B6902229A7502E07B696A
S113200001221A751223FB181B880222134011D0D7
S11320107B6902221A75BB6933220021995410236B
S1132020FB181B880122134004D0BB69DB68BA6922
S1132030100098471223FB181B880422134000D178
S1132040BDE0BB699B8D9BB2002B00D1B4E07B69E2
S11320505B8B9BB2DAB21F23FB183F210A401A7034
S11320601F23FB181B780822134007D01F23FB18DB
S11320701F22BA18127808218A431A701F23FB18EA
S11320801B78002B50D01F23FB181B78022213400F
S113209007D0BB6932221A2199547B6902225A83E0
S11320A036E01F23FB181B780422134007D0BB69BA
S11320B032221E2199547B6904225A8328E01F236B
S11320C0FB181B780122134007D0BB69322213216D
S11320D099547B6901225A831AE01F23FB181B7849
S11320E01022134007D0BB693222422199547B69E4
S11320F010225A830CE01F23FB181B782022134064
S113210006D0BB693222412199547B6920225A832B
S11321101023FB181B880422134050D0BB695B6951
S1132120BA69100098474AE07B691B8D9AB20E2366
S1132130FB18D205D20D1A80BB695B6A0E22BA184D
S11321401288D2B21A70BB695B6A5A1CBB695A62A4
S1132150BB695B79012B0DD1BB695B6A0E22BA188E
S11321601288120A92B2D2B21A70BB695B6A5A1C04
S1132170BB695A62BB699B8D9BB2013B9BB2BA6936
S1132180191C9185002B1AD17B6904221A75BB692D
S11321903222002199541023FB181B880222134079
S11321A00DD0BB691B69BA691000984707E0C046A7
S11321B0A0000020ED1E00007B6904221A75122382
S11321C0FB181B881022134010D07B6910221A754B
S11321D07B6910221A761023FB181B8810221340E7
S11321E004D0BB69DB69BA69100098471223FB1855
S11321F01B882022134010D07B6920221A757B692A
S113220020221A761023FB181B880822134004D0BE
S1132210BB699B69BA69100098471223FB181B8895
S11322200822134010D07B6908221A757B690822A2
S11322301A761023FB181B882022134004D0BB6994
S11322401B6ABA6910009847C046BD4608B080BDF5
S113225080B500AFC046044BDA6880235B001340AE
S1132260F9D0C046BD4680BD000C004080B582B0A8
S113227000AF0200FB1D1A70FB1D1B78082B42D80F
S11322809A00234BD3181B689F46224B1B693BE0E3
S1132290214B1B7D1B079B0FDBB201331A001F4B25
S11322A0534331E080231B022EE080231B022BE0EA
S11322B0184B5B6928E0174B1B680222134001D1BD
S11322C0002321E0164B9847124B1B68242213402D
S11322D0042B09D10020134B984702000D4B9B6837
S11322E01B041B0C53430FE00F4B0DE00A4A282339
S11322F0D35CDBB21A000223134001D1002303E0B4
S1132300044BDB6800E000231800BD4602B080BD2A
S11323106C6000007C000020000C004000093D00BF
S11323205122000041250000006CDC0280B500AFA2
S1132330024B9847C046BD4680BDC046150100000B
S113234080B500AF024B9847C046BD4680BDC0462D
S11323506901000080B582B000AF0200FB1D1A7055
S1132360094B5B68FA1D1278012191400A00920022
S11323701340064A134001D0012300E00023180053
S1132380BD4602B080BDC04600180040FC070000F6
S113239080B586B000AF0200FB1D1A70C046FB1D5D
S11323A01B781800244B9847031EF8D1234B9847F9
S11323B0234AFB1D1B7808339B009B581B071B0FEC
S11323C0DBB218001F4B984703007B611C4AFB1DBE
S11323D01B7808339B009B58DB04DB0FDAB2132312
S11323E0FB181A70164AFB1D1B7808339B009B5878
S11323F01B0C9BB2FB60144B98471323FB181B78F0
S1132400002B09D1FB68012B06D9104BF9687869B8
S1132410984703007B610AE01323FB181B78002B09
S113242005D0FB6801337A69DA4013007B617B696C
S11324301800BD4606B080BD552300002D230000C2
S1132440001800406D2200004123000049410000B3
S113245080B582B000AF02003960FB1D1A70FB1D0D
S11324601B781800084B98470849FB1D1B783A68ED
S1132470127810000F22024020339B005A50C046AD
S1132480BD4602B080BDC046E924000000180040EB
S113249080B582B000AF0200FB1D1A700F4B984745
S11324A00F49FB1D1B780E48FA1D1278203292004A
S11324B012584020024320339B005A50C046084A19
S11324C0FB1D1B7820339B009B5840221340F6D001
S11324D0044B9847C046BD4602B080BD2D23000082
S11324E0001800404123000080B582B000AF020014
S11324F0FB1D1A700F4B98470F49FB1D1B780E48A4
S1132500FA1D127820329200125840208243203360
S11325109B005A50C046084AFB1D1B7820339B0081
S11325209B5840221340F6D1044B9847C046BD4601
S113253002B080BD2D23000000180040412300009C
S113254080B584B000AF0200FB1D1A700D4B984794
S11325500D4AFB1D1B7820339B009B581B071B0F48
S1132560DAB20F23FB181A70084B98470F23FB1895
S11325701B781800064B984703001800BD4604B0AA
S113258080BDC0462D2300000018004041230000F8
S11325909123000080B584B000AF0200FB1D1A70C7
S11325A00F23FB18FA1D1278D2091A700E23FB1898
S11325B0FA1D127852091A700D4BBB600F23FB18D9
S11325C01B78002B0FD10F23FB181B789B001022C4
S11325D09446BC446344083B1A680E23FB181B78DA
S11325E0DB01D31800E000231800BD4604B080BD11
S11325F00028004080B588B000AFF860B9607A6008
S11326000023FB617B68DB7801225340DBB2002BA3
S113261035D07B681B78802B0BD0FB69802252025B
S11326201343FB617B681B781B061A00FB69134389
S1132630FB617B685B78002B03D07B685B78022BA3
S113264010D1FB69802292021343FB617B689B7863
S1132650002B04D0FB698022D2021343FB61FB6888
S1132660BA685A607B685B78012B03D07B685B781F
S1132670022B07D1FB69224A1340FB6102E0FB688D
S1132680BA685A60BB681B041B0CBB61BB681B0C9B
S11326907B61BA69FB691343A022D2051A43FB6824
S11326A09A627A69FB691343D02212061A43FB68C3
S11326B09A627B68DB7801225340DBB2002B1AD08C
S11326C0FA698023DB0213400AD07B689B78012BD4
S11326D003D1FB68BA689A6102E0FB68BA685A6180
S11326E07B685B78012B03D07B685B78022B02D17B
S11326F0FB68BA689A60C046BD4608B080BDC04653
S1132700FFFFFBFF80B584B000AF02003960FB1D02
S11327101A70FB1D1B7818000A4B98470300FB60D6
S1132720FB1D1B781F22134001229A401300BB603B
S11327303A68B968FB681800034B9847C046BD4621
S113274004B080BD95250000F525000080B582B059
S113275000AF78607B6800221A70C046BD4602B0A4
S113276080BD000080B582B000AF02003960FB1D5F
S11327701A70FB1D1B78042B27D89A00164BD3180C
S11327801B689F46154B154A51693A680A435A61BA
S11327901DE0124B114A91693A680A439A6116E0A6
S11327A00E4B0E4AD1693A680A43DA610FE00B4BCB
S11327B00A4A116A3A680A431A6208E0074B074A50
S11327C0516A3A680A435A6201E0172300E0002381
S11327D01800BD4602B080BD9060000000040040B7
S11327E080B582B000AF78607B6880221A707B6805
S11327F000225A707B6801229A707B680022DA708A
S1132800C046BD4602B080BD80B584B000AF7860DC
S11328100023FB600CE00A4BFA689200D2587B68F4
S11328209A4202D1FB68DBB206E0FB680133FB602D
S1132830FB68022BEFD900231800BD4604B080BD0D
S1132840A460000090B585B000AF786039600F23B4
S1132850FC183B681800AE4B9847030023707B6854
S113286000221A600F23FB181A78AA4B9200D25840
S11328707B685A607B680022DA727B6800221A73D4
S11328807B6800225A737B6800229A727B6800225C
S11328901A727B6800225A727B680022DA617B68B4
S11328A000221A627B6800225A627B6800229A62C4
S11328B07B6800221A757B6800225A757B680022A7
S11328C09A757B680022DA757B6800221A767B6829
S11328D000225A767B6800221A747B6800225A749C
S11328E07B6800229A747B680022DA747B682C224D
S11328F0002199547B682D22002199547B682E2253
S1132900002199547B682F22002199547B6830223E
S1132910002199547B683122002199547B6832222A
S1132920002199547B683322002199547B68342216
S1132930002199547B683522002199547B68362202
S1132940002199547B683722002199547B683822EE
S1132950002199547B683922002199547B683A22DA
S1132960002199547B683B22002199547B683C22C6
S1132970002199547B683D22002199547B683E22B2
S1132980002199547B683F22002199547B6840229E
S1132990002199547B684122002199547B6842228A
S11329A0002199547B684322002199547B68442276
S11329B0002199547B684522002199547B68462262
S11329C0002199547B684722002199547B6848224E
S11329D0002199547B684922002199547B684A223A
S11329E0002199547B684B22002199547B684C2226
S11329F0002199547B684D22002199547B684E2212
S1132A00002199547B684F22002199547B685022FD
S1132A10002199547B685122002199547B685222E9
S1132A20002199547B685322002199547B685422D5
S1132A30002199547B685522002199547B685622C1
S1132A40002199547B685722002199547B6898226D
S1132A50002199547B6800229A657B6800229A675A
S1132A607B689922002199547B680022DA657B688F
S1132A700022DA677B689A22002199547B6800223D
S1132A801A667B688022002199507B689B22002172
S1132A9099547B6800225A667B68842200219950ED
S1132AA07B689C22002199547B6800229A667B688B
S1132AB08822002199507B689D22002199547B68CB
S1132AC00022DA667B688C22002199507B689E2262
S1132AD0002199547B6800221A677B6890220021A8
S1132AE099507B689F22002199547B6800225A6781
S1132AF07B689422002199507B68A022012199547B
S1132B007B68A12200219954C046BD4605B090BD02
S1132B1009280000C060000080B586B000AFB9602D
S1132B207A600F23FB18021C1A7000237B610023B8
S1132B303B611DE0BA683B69D31810331B78012B45
S1132B4013D10F23FB181B781B4AD35C1A003B6973
S1132B509A4201DA17232AE080235A043B699A40F7
S1132B6013001A007B6913437B613B6901333B61AA
S1132B703B69032BDEDDBB68A1229B5C002B04D0E8
S1132B807B698022120113437B61BB685B7B1B035F
S1132B901A007B6913437B61BB681B7B1B021A0011
S1132BA07B6913437B617B687A691A600023180090
S1132BB0BD4606B080BDC046CC60000080B586B07E
S1132BC000AFB9607A600F23FB18021C1A70172338
S1132BD0FB1800221A70BB681B7A002B07D017233E
S1132BE0FB181722BA18127804210A431A70BB681A
S1132BF09B7A012B07D11723FB181722BA181278D6
S1132C0001210A431A707B681722BA1812781A70C5
S1132C10C046BD4606B080BD80B588B000AFB9607F
S1132C207A600F23FB18021C1A700F23FB181A7802
S1132C301B23FB183E498A5C1A700023FB616EE07B
S1132C40FA6913009B009B185B002833BA68D318F9
S1132C5004337B617B695B7A1B22BA1812789A422F
S1132C6001D817235FE07B691B780F2B01D9172349
S1132C7059E07B691B781B061A00F0231B051A40D8
S1132C807B695B781B041900FF231B040B401A4368
S1132C907B699B78002B01D0802300E000231A433A
S1132CA07B69DB78002B01D0082300E000231A4362
S1132CB07B691B79002B01D0102300E000231A4309
S1132CC07B695B79190003230B401A437B699B7969
S1132CD05B01190060230B401A437B69DB791B02FB
S1132CE01900C0239B000B401A437B691B7A1B030A
S1132CF01900E023DB010B401A437B695B7A9B02DA
S1132D001900C0231B010B4013433B61FB699B006B
S1132D107A68D3183A691A60FB690133FB61FB696D
S1132D20012B8DDD00231800BD4608B080BDC046D0
S1132D30CC60000080B588B000AFB9607A600F2322
S1132D40FB18021C1A700F23FB181A781723FB18A0
S1132D502D498A5C1A700023BB610023FB6148E0A3
S1132D60BA685021FB69D3185B181B78002B10D06C
S1132D701723FB181A78FB699A4201D817233FE0FE
S1132D8080235A02FB699A4013001A00BB6913435B
S1132D90BB61BA68FB691C335B00D31809331B7829
S1132DA0002B23D01723FB181A78FB699A4201D809
S1132DB0172325E0BA68FB691C335B00D318093379
S1132DC01B78022B0AD10223FF331A00FB699A40B5
S1132DD013001A00BB691343BB6107E00122FB69BE
S1132DE09A4013001A00BB691343BB61FB690133AA
S1132DF0FB61FB69072BB3D97B68BA691A600023AE
S1132E001800BD4608B080BDD060000080B588B011
S1132E1000AFB9607A600F23FB18021C1A700F23ED
S1132E20FB181A781723FB181D498A5C1A70BB68B3
S1132E3010333B613B695B7A1B011A0030231A4053
S1132E403B691B7A190007230B401343BB61002322
S1132E50FB611AE03A69FB69D31804331B78002B31
S1132E6010D01723FB181A78FB699A4201DC172348
S1132E7012E080235A02FB699A4013001A00BB69CE
S1132E801343BB61FB690133FB61FB69032BE1DD88
S1132E907B68BA691A6000231800BD4608B080BD7B
S1132EA0CC60000090B591B000AFF860B9607A6072
S1132EB03B23FC18BB681800BF4B984703002370E2
S1132EC03B23FB181A78BD4B9200D35819000220FB
S1132ED0BB4B9847BB681B680222134001D01C23DC
S1132EE065E1BB681B680122134001D01C235EE12D
S1132EF03B23FB181A78B34B9200D3587B637B684F
S1132F001A687B6B9A4204D87B685A687B6B9A4236
S1132F1001D917234BE10023FB630EE07A68FB6BB6
S1132F2006339B00D31804331A687B6B9A4201D989
S1132F3017233CE1FB6B0133FB63FB6B032BEDDDE0
S1132F400023FB6319E07A689821FB6BD3185B18A4
S1132F501B7801225340DBB2002B0AD13B23FB1820
S1132F601B78994AD35C1A00FB6B9A4202DC172344
S1132F701DE1C046FB6B0133FB63FB6B072BE2DDFA
S1132F800023FB623323FC182C23FA1879683B23B3
S1132F90FB181B7818008D4B9847030023703323CC
S1132FA0FB181B78002B03D03323FB181B78FEE09F
S1132FB02B23FA1879683B23FB181B781800844BE1
S1132FC098473323FC182023FA1879683B23FB180D
S1132FD01B7818007F4B9847030023703323FB189A
S1132FE01B78002B03D03323FB181B78DFE000236E
S1132FF0FB613323FC181C23FA1879683B23FB1864
S11330001B781800744B9847030023703323FB1874
S11330101B78002B03D03323FB181B78C7E0332322
S1133020FC181823FA1879683B23FB181B7818003E
S11330306A4B9847030023703323FB181B78002B3B
S113304003D03323FB181B78B1E0FB68BA681A601D
S11330507B68A0229A5CFB681A711423FB18180081
S11330605F4B98477B68DA7A1423FB181A703B236A
S1133070FB181B785B4AD35C1422BA1811001800A1
S1133080594B98473B23FB181B78564AD35C1800CE
S1133090564B98470023FB632DE07A689821FB6B1D
S11330A0D3185B181B7801225340DBB2002B1ED1CE
S11330B01023FB1818004E4B98477B68FA6B1E329E
S11330C09200D358DAB21023FB181A701023FB189D
S11330D001225A707B68FA6B16329200D358DBB225
S11330E01022BA1811001800424B984700E0C0465D
S11330F0FB6B0133FB633B23FB181B78324AD35C25
S11331001A00FB6B9A42C8DCFA6ABB681A60C046B4
S1133110BB689B6804221340FAD1BB68FF221A7172
S1133120C046BB689B6804221340FAD12B23FB18CA
S11331301A78BB685A712023FB181A68BB68DA60D6
S11331402023FB185A68BB681A61FA69BB689A6144
S1133150BA69BB68DA63C046BB689B681022134037
S1133160FAD17B681A68BB685A637B685A68BB6883
S11331701A640023FB6310E07A68FB6B06339B0040
S1133180D31804331A68B968FB6B10339B00CB184F
S113319004331A60FB6B0133FB633B23FB181B787E
S11331A0154AD35C1A00FB6B9A42E5DC0023180035
S11331B0BD4611B090BDC04609280000B4600000AF
S11331C065270000C0600000D0600000192B0000DB
S11331D0BD2B0000192C0000352D00000D2E000021
S11331E04D270000B060000051240000912400002D
S11331F0E127000005270000CC60000080B582B004
S113320000AF194B7B60194B3B607A683B689A426C
S11332100CD007E03B681A1D3A607A68111D79608A
S113322012681A603A68124B9A42F3D3114B3B600E
S113323004E03B681A1D3A6000221A603A680E4B9B
S11332409A42F6D30D4B7B600D4B7A68FF218A437B
S11332509A600C4A536880210B4353600A4B984789
S11332600A4B9847FEE7C046346200000000002085
S113327014000020200000205C0100200000000059
S113328000ED00E000400041955E0000393C000084
S113329080B500AFFEE780B582B000AF78607B6890
S11332A080221A707B6800225A707B6801229A700F
S11332B07B680022DA70C046BD4602B080BD0000C3
S11332C080B584B000AF0200FB1D1A700F23FB18F9
S11332D0FA1D1278D2091A700E23FB18FA1D1278FF
S11332E052091A700D4BBB600F23FB181B78002B7F
S11332F00FD10F23FB181B789B0010229446BC446B
S11333006344083B1A680E23FB181B78DB01D318AF
S113331000E000231800BD4604B080BD0028004032
S113332080B582B000AF78607B6800221A707B6839
S113333000225A707B6800229A70C046BD4602B0D3
S113334080BD000080B582B000AF7860144A7B680D
S11333501B78191C0F230B40D9B2D3690F200140ED
S11333600904104803400B43D3610D4A7B68597824
S1133370D36901200140C901802083430B43D361F9
S1133380074A7B689978D36901200140890140206C
S113339083430B43D361C046BD4602B080BDC046E3
S11333A000140040FFFFF0FF80B584B000AF7860E8
S11333B07B681B68FB60FB681B8C9BB2002B01D0F5
S11333C0012300E000231800BD4604B080BD80B591
S11333D086B000AF78607B681B683B613B699B7972
S11333E0DBB2FB6000237B61FB680122134003D046
S11333F07B69012213437B61FB680422134003D0E1
S11334007B69022213437B61FB680222134003D0D1
S11334107B69042213437B617B691800BD4606B0B7
S113342080BD80B584B000AF786039607B681B686C
S1133430BB600023FB603B680122134003D0FB68A0
S113344001221343FB603B680222134003D0FB6854
S113345004221343FB603B680422134003D0FB683F
S113346002221343FB60FB68DAB2BB689A71C04660
S1133470BD4604B080BD000080B584B000AF786064
S11334807B681B68FB60C0467B6818000E4B98473E
S1133490031EF9D1FB6807221A71FB6807229A718F
S11334A0FB681B78DBB202221343DAB2FB681A70A2
S11334B0C0467B681800044B9847031EF9D10023CB
S11334C01800BD4604B080BDA933000080B584B0A7
S11334D000AF78607B681B68FB60C0467B6818009F
S11334E00B4B9847031EF9D1FB681B7EDBB202220B
S11334F01343DAB2FB681A76C0467B681800044BA3
S11335009847031EF9D1C046BD4604B080BDC046ED
S1133510A933000080B584B000AF786039607B685F
S11335201800144B984702000123134001D10523CE
S11335301CE07B681B68FB60FB689B8C9AB23B6851
S11335401A807B68012118000B4B98477B68180090
S1133550084B984702000423134006D07B680421DB
S11335601800054B98471E2300E000231800BD46B1
S113357004B080BDCF3300002334000080B584B094
S113358000AF78600A00FB1C1A707B681B68FB6044
S1133590C0467B6818000E4B9847031EF9D1FB68A0
S11335A01B899BB21F2293439AB2FB1C1B789BB2CC
S11335B013439AB2FB681A81C0467B681800044B17
S11335C09847031EF9D1C046BD4604B080BDC0462D
S11335D0A933000080B582B000AF78600A00FB1CFC
S11335E01A707B681B7C5AB2FB1C1B780121994022
S11335F00B005BB213435BB2DAB27B681A747B686C
S11336001B7818007B681B781A00084B9A5CFB1C1B
S11336101B78012199400B00DBB21343DAB2034B50
S11336201A54C046BD4602B080BDC04658000020B2
S113363080B584B000AFF860B960FB1D1A70FB1D43
S11336401B78FA689B00D3180433BA681A60C04622
S1133650BD4604B080BD80B582B000AF78607B68A1
S113366001221A707B6800225A707B6800229A70CB
S11336707B680022DA707B6801221A717B68012260
S11336805A717B6800229A717B680022DA717B6828
S113369000221A817B680022DA607B6800221A61AA
S11336A07B6800225A61C046BD4602B080BD00005E
S11336B080B582B000AF0200FB1D1A70FB1D1B78A1
S11336C01800034B984703001800BD4602B080BDA4
S11336D0C132000080B582B000AF78607B68002200
S11336E01A707B6801225A707B6800229A70C04667
S11336F0BD4602B080BD000080B584B000AF0200BA
S1133700FB1D1A70BB1D0A1C1A70FB1D1B781800C8
S11337100D4B98470300FB60FB1D1B781F221340D1
S113372001229A401300BB60BB1D1B78002B03D001
S1133730FB68BA689A6102E0FB68BA685A61C046DD
S1133740BD4604B080BDC046B136000080B582B02D
S113375000AF0200FB1D1A70064BFA1D127811000F
S11337601F220A40012191400A001A60C046BD464A
S113377002B080BD00E100E080B584B000AF7860A5
S11337807B681B68FB60FB68DB695A1E9341DBB2F4
S11337901800BD4604B080BD80B582B000AF78602B
S11337A0C0467B681800044B9847031EF9D1C046F5
S11337B0BD4602B080BDC0467937000080B582B0F6
S11337C000AF78607B688022D2051A607B68002293
S11337D05A607B68FF221A817B6800229A727B6898
S11337E00022DA727B68962292011A627B68242294
S11337F0012199547B682522012199547B68262252
S1133800002199547B682722002199547B68002267
S11338109A627B6888225203DA607B682C2200213A
S113382099547B682D22002199547B6800221A63E5
S11338307B6800225A637B6800229A637B680022BB
S1133840DA637B6800225A617B6800221A827B68F3
S11338500022DA767B6800221A767B6800221A77C7
S11338607B6800225A767B6813229A767B68002252
S11338705A77C046BD4602B080BD000080B584B012
S113388000AF78607B681B68FB607B681B6818006E
S1133890094B984703001800084B98477B681800A9
S11338A0074B9847FB681B6802221A43FB681A609F
S11338B0C046BD4604B080BD611700004D3700000E
S11338C09937000080B582B000AF7860054B0122C3
S11338D01A70054B1800054B9847C046BD4602B008
S11338E080BDC0469C00002040010020450E000021
S11338F080B584B000AF78600823FB1818000A4B29
S113390098470823FB1807225A700823FB18022241
S11339109A700823FA187B6811001800034B984723
S1133920C046BD4604B080BDF10C0000250D00006A
S113393080B588B000AF78600823FB181800124BDC
S113394098470823FB180122DA700823FB18002289
S11339501A710823FB1801221A810C4B9A1C0823A4
S1133960FB181A610A4B1B6828331A000823FB183A
S1133970DA600823FA187B6811001800054B984791
S1133980C046BD4608B080BD5736000094000020F4
S1133990C0000020FD0E000080B584B000AF786048
S11339A00823FB1818000A4B98470823FB18082221
S11339B05A700823FB1802229A700823FA187B68AD
S11339C011001800034B9847C046BD4604B080BDA3
S11339D0F10C0000250D000080B588B000AF7860C0
S11339E00823FB181800124B98470823FB180122E0
S11339F0DA700823FB1800225A710823FB180222EC
S1133A001A810C4B1A1D0823FB18DA600A4B1B6839
S1133A1028331A000823FB181A610823FA187B6854
S1133A2011001800054B9847C046BD4608B080BD3C
S1133A305736000098000020C0000020FD0E000052
S1133A4080B500AF2A4B1B78002B4DD0284B0022A9
S1133A501A70284B6F221A80264B0A225A80264B52
S1133A601B88752B0ED1254B1B780A3BDAB2234BEE
S1133A701A70234B214A12781A64224B1F4A127877
S1133A801A642DE01C4B1B88642B0ED11B4B1B7836
S1133A900A33DAB2194B1A70194B184A12781A649D
S1133AA0184B164A12781A641AE0134B1B88732BAE
S1133AB007D1154B00221A7001212A20134B984775
S1133AC00EE00D4B1B88722B07D10F4B01221A708D
S1133AD000212A200D4B984702E0064B65221A80EC
S1133AE00B4B18000B4B9847C046BD4680BDC046E3
S1133AF09C00002098000020940000201100002069
S1133B00001400420018004210000020F9360000A2
S1133B1010010020450E000080B590B000AF3B00BE
S1133B201800144B98473B00962292011A623B00FE
S1133B3080225203DA603B000F4A1A633B000F4AAB
S1133B405A633B00012252429A633B0001225242D3
S1133B50DA63C0463A000A490A4B18000A4B9847F0
S1133B60031EF7D1074B1800084B9847C046BD46C3
S1133B7010B080BDBD37000002001600020017001F
S1133B80000C0042C0000020351C00007D380000FD
S1133B90F0B587B000AFF8607A600B23FB180A1CFD
S1133BA01A700B23FB181A78FB6811001800194BC4
S1133BB09847FB681800184B98471623FA18FB68B7
S1133BC011001800154B98471623FB181B881A0080
S1133BD0134B10009847134C0022134BA0470300CB
S1133BE00C001D002600114B7868984702000B005A
S1133BF00F4C28003100A04703000C0019002200DC
S1133C000C4B080011009847031C181CBD4607B054
S1133C10F0BDC0467D350000CD34000015350000F0
S1133C20595A0000F14E000000E06F40DD5A0000D8
S1133C3059550000815B000090B5EBB000AFFE4A1F
S1133C40137D0C210B431375CC235B00FB18180068
S1133C50FA4B9847CC235B00FB1804221A70CC2340
S1133C605B00FB181800F64B9847CA235B00FB184F
S1133C701800F44B9847CA235B00FB1801221A7002
S1133C80CA235B00FB1819002A20EF4B9847EF4B1F
S1133C909847EF4B1800EF4B9847EF4B1800EF4B4A
S1133CA09847EF4B1800EF4B9847EF4B1800EF4B3A
S1133CB09847EB4AE64B11001800ED4B9847EA4A47
S1133CC0E54B11001800EA4B9847EA49E04B012202
S1133CD01800E94B9847DE4B01211800E74B984741
S1133CE0DD4B01211800E54B9847D94B1800E44BF4
S1133CF09847E44AF023FB1811001800E24B984758
S1133D00F023FB1800221A73E04B1B781A00F023EF
S1133D10FB185A60F023FB1802221A76DB4B1B783F
S1133D205B08DBB21A00F023FB18DA61F023FB18FE
S1133D30982201219954F023FB1804229A65F02358
S1133D40FB1804229A67D14B1B785B08DBB21A007C
S1133D50F023FB181A62F023FB18992201219954CD
S1133D60F023FB180522DA65F023FB180422DA6736
S1133D70F023FA18C349E823FB181800C44B9847EA
S1133D80C44A4423FB1811001800BF4B9847C24B88
S1133D90D42252009446BC44634400221A73BB4BA1
S1133DA01B781A00BC4BD42149008C46BC446344A4
S1133DB05A60B94BD42252009446BC446344022254
S1133DC01A76B24B1B785B08DBB21A00B24BD421D3
S1133DD049008C46BC446344DA61AF4BD4225200A0
S1133DE09446BC446344982201219954AA4BD4229A
S1133DF052009446BC44634406229A65A64BD422DE
S1133E0052009446BC44634404229A679F4B1B7837
S1133E105B08DBB21A00A04BD42149008C46BC4499
S1133E2063441A629C4BD42252009446BC446344BB
S1133E30992201219954984BD42252009446BC44AF
S1133E4063440722DA65944BD42252009446BC445E
S1133E5063440422DA674423FA188E493C23FB188E
S1133E6018008B4B98478D4BD42252009446BC4487
S1133E7063441B68894AD42149008C46BC4462448B
S1133E801268D26BD203D20FD2B201214A40D1B20E
S1133E90DA6B012001400904814802400A43DA63D5
S1133EA07E4BD42252009446BC4463441B687B4A34
S1133EB0D42149008C46BC4462441268D26B9203FC
S1133EC0D20FD2B201214A40D1B2DA6B01200140B3
S1133ED04904744802400A43DA633823FB18180083
S1133EE0714B9847714BD42252009446BC446344AE
S1133EF000229A706D4BD42252009446BC44634411
S1133F0001221A703823FB1819000320684B9847C4
S1133F103823FB1819002720654B98470C23FB18FE
S1133F201800644B9847644BD42252009446BC4416
S1133F3063443022DA700C23FA1860493B1D1800E0
S1133F405F4B98473B1D18005E4B9847E823FB18CE
S1133F501B68E822BA181268126802210A431A6020
S1133F604E4BD42252009446BC4463441B684B4AD3
S1133F70D42149008C46BC44624412681268022170
S1133F800A431A60D3235B00FB180A221A70A62383
S1133F90FF33FB1800221A704B4B98478022D2053E
S1133FA03B1D01211800494B9847031CD0225200A5
S1133FB0BA1813608022D2053B1D0F211800434B11
S1133FC09847031CCE225200BA181360404BCE22ED
S1133FD05200BA181168D0225200BA1810689847D3
S1133FE0031C1A1C3B4B111CD0225200BA18106837
S1133FF09847031C1C1C254B1B781A00364B1000D9
S11340009847021C354B111C201C9847031C1A1C92
S1134010304B8021C905101C9847031C1A1CA82387
S1134020FF33FC182E4B101C9847030023702D4BB4
S11340301B780122534057E0000C0040213300005C
S113404045330000D5360000B5100000193B0000D0
S113405040010020F13800001001002099390000CF
S1134060000100203139000030010020D93900005E
S113407041100000C538000031360000D53500007D
S1134080450E0000001400424528000011000020E5
S1134090A52E0000001800429CFEFFFF94FEFFFFC7
S11340A0FFFFFEFFFFFFFDFF9732000090FEFFFFC2
S11340B0052700001503000064FEFFFF000C004309
S11340C04D09000079340000413A0000913B0000A2
S11340D0E542000009460000514E000099480000E6
S11340E0B542000010000020DBB2002B04D0A8234E
S11340F0FF33FB1800221A70114BA822FF32BA18A2
S113410012785A640E4BA822FF32BA1812789A64B5
S11341100C4BA822FF32BA1812785A64094BA82211
S1134120FF32BA1812789A64054B00225A63054B81
S1134130D3225200BA18127852B25A632CE7C046FE
S11341400014004200180042002243088B4274D33A
S113415003098B425FD3030A8B4244D3030B8B4284
S113416028D3030C8B420DD3FF22090212BA030C8D
S11341708B4202D31212090265D0030B8B4219D36E
S113418000E0090AC30B8B4201D3CB03C01A52418E
S1134190830B8B4201D38B03C01A5241430B8B42D6
S11341A001D34B03C01A5241030B8B4201D30B03BF
S11341B0C01A5241C30A8B4201D3CB02C01A5241E6
S11341C0830A8B4201D38B02C01A5241430A8B42A9
S11341D001D34B02C01A5241030A8B4201D30B0292
S11341E0C01A5241CDD2C3098B4201D3CB01C01AAC
S11341F0524183098B4201D38B01C01A52414309B6
S11342008B4201D34B01C01A524103098B4201D3A3
S11342100B01C01A5241C3088B4201D3CB00C01A10
S1134220524183088B4201D38B00C01A5241430888
S11342308B4201D34B00C01A5241411A00D20146AD
S1134240524110467047FFE701B5002000F006F820
S113425002BDC0460029F7D076E770477047C046D4
S1134260F0B5CE46474615042D0C2E0080B5070444
S1134270140C3F0C9946030C7E435D436743634330
S11342807F19340CE4199C46A54203D980235B02B0
S11342909846C4444B46514343433604360C250CDC
S11342A024046544A4195918491920000CBC9046EB
S11342B09946F0BD9E2110B5C905041C01F01AFDF4
S11342C0002803D1201C00F0A3FD10BD9E21201C5A
S11342D0C90500F001FC00F09BFD80231B069C46F1
S11342E06044F2E7F0B5C6464E024702760A7B0AFE
S11342F04400C50FF7004800984600B5240E2A0074
S1134300DB00000EC90FBC468D4267D0221A002A7A
S113431000DCA5E000283AD1002F00D193E0511E23
S1134320002900D0BCE00124DB1B5A0146D59B01C7
S11343309E09300001F0E8FC05388640844200DD27
S11343409DE0041B320020200134E240041BA640FF
S113435033005E1EB341002413435A0704D00F22D6
S11343601A40042A00D004335A0129D50134FF2C01
S113437000D181E02A009B015B0AE4B25B02E40500
S1134380580AD2072043104304BC9046F0BDFF2CCA
S1134390E3D080213800C904084384461B2A00DD89
S11343A082E020206146D140821A6046904002009B
S11343B0501E82410A439B1A5A01B8D45A07CED1DF
S11343C0DE082A00FF2C3AD1002E00D1AEE0802373
S11343D0DB0333435B025B0AFF24CFE7211A002986
S11343E052DD002831D0FF2CB7D080203E00C0041D
S11343F00643B4461B2900DDAAE020266046C840D7
S1134400711A66468E4031004E1EB14101435B185D
S11344105901D3D50134FF2C00D187E0012278491A
S11344201A405B080B40134397E7002C00D0A7E029
S1134430002B00D0B6E03B1E62D10026002273029E
S11344405B0AE4B29AE7140087E7002F4DD0481EB8
S1134450002857D1634401245A01AFD50224DDE773
S1134460002A24D1621CD2B2012ADEDDDE1B7201D5
S113447035D5FE1A0D005CE72A0000237EE73300E1
S1134480604A241A134068E7002963D1611CC8B24A
S113449001284EDDFF2949D063445B080C005CE72A
S11344A0FF2A41D00A0079E701229B1A84E7002CF5
S11344B01DD0FF2822D08024E404524223431B2A27
S11344C000DD8AE01C002025D440AA1A93405A1E1D
S11344D09341234362460400D31A0D0025E7002EBE
S11344E000D026E700220024A9E70C0035E7002BC2
S11344F04DD0D243002AEDD0FF28E0D16346FF24FB
S11345000D002AE7FF290FD0010073E7002B61D0CB
S1134510FF24002F00D120E780224146D20311421C
S113452002D0164200D13B00FF2416E7FF240023EB
S113453024E7002CEAD1002B58D0002F00D10CE73F
S113454063445A0100D439E72E4A0C00134004E7AF
S113455001215CE7002C1ED1002B40D0C943002967
S11345600BD0FF2836D01B2947DC1C002026CC406A
S1134570711A8B40591E8B4123436344040047E75F
S1134580002B18D13B1E2DD00D00FF24E5E63B0087
S113459004000D00E1E6FF281CD08024E404494215
S11345A02343E0E7002F00D1D7E6DE1B72011FD5BD
S11345B0FB1A0D00D1E6FF24002F00D1CDE68022A6
S11345C04046D2031042AFD01642ADD13B000D009D
S11345D0FF24C2E66346FF24BFE601237AE73B00DB
S11345E00400BAE680260022F603F0E63B00B4E6B7
S11345F0331E00D0E2E6002221E70123BDE7C046D6
S1134600FFFFFF7DFFFFFFFBF0B557464E46DE463A
S11346104546E0B544024300C60F83B00F1C640A4C
S11346201B0EB24653D0FF2B27D08022E400D204C5
S113463014437F22524290469844002399469B4655
S11346407D027800FB0F6D0A000E009324D0FF2832
S113465046D080230021ED00DB041D437F3847460C
S1134660381A4F460F43BF00B9463300009A874FAC
S113467053404A46BA5801939746002C4ED108231A
S11346809946F7339846FD3B9B467D027800FB0F25
S11346906D0A000E0093DAD1002D26D100200121ED
S11346A03300009A7A4F53404246101A4A460A434E
S11346B09200BA581D009746009B2C009A468B46E0
S11346C05B46022B31D15346FF21002438E0002CF5
S11346D017D1042399460023984601339B46AFE73C
S11346E0FF20002D0BD10221DAE7280001F00CFB9A
S11346F0431F9D4076235B42181A0021AFE7032134
S1134700ADE7200001F000FB431F9C4076235B4291
S11347101B1A9846002399469B4691E70C23994619
S1134720F3339846FC3B9B468AE7032B00D1A5E074
S11347305546012B00D081E00123002100242B40A9
S11347406402C905600ADB070843184303B03CBC94
S113475090469946A246AB46F0BD80240023E4036C
S1134760FF21EDE7FF210024EAE70123591A1B2961
S113477066DD019A134000210024E1E78023DB0376
S11347801C4238D01D4251D01C436402640A3300D9
S1134790FF21D5E763016C01A3423BD21B26002114
S11347A0013801251F0049005B00002F01DB9C42FA
S11347B001D81B1B2943013E002EF3D11C00631EAC
S11347C09C410C4301007F310029CEDD630704D0F6
S11347D00F232340042B00D00434230103D501000C
S11347E02C4B80311C40FE290DDD0123019AFF2151
S11347F013400024A4E78023DB031C436402640AFF
S11348003300FF219CE70123019AA401640AC9B281
S1134810134095E71B1B1A260121C2E7009B8B4618
S11348209A4600244CE76302E5D500258024E4037E
S11348302C436402640A009BFF2181E70195C1E7D0
S113484023002020CB40411A8C40611E8C411C4324
S1134850630704D00F232340042B00D004346301E6
S113486005D50123019A01211340002468E701239F
S1134870019AA401640A1340002161E78023DB0349
S11348801C436402640A5346FF2159E7D4600000C4
S113489014610000FFFFFFF7F8B557464E46454642
S11348A0DE46E0B54702460088467F0A360EC40F4E
S11348B0002E47D0FF2E24D0FB008027FF041F4387
S11348C0002399469A467F3E43465D025800DB0F1B
S11348D06D0A000E984643D0FF283BD0EB0080259C
S11348E00022ED041D437F383618731C41469B4655
S11348F04B46614013430F2B64D875489B00C35843
S11349009F46002F42D108239946063BFF269A462C
S1134910DAE74146022A28D0032A00D1CEE0012A50
S113492000D0ACE0114000200022CCB24002D205FD
S1134930400AE407104320433CBC90469946A246F3
S1134940AB46F8BD002F15D104239946033B00263E
S11349509A46B9E7FF200222002DC5D00322C3E7FF
S1134960002D19D100200122BEE70124FF220C40B2
S11349700020DBE7380001F0C7F97626431F9F408B
S113498000237642361A99469A469DE70C239946A7
S1134990093BFF269A4697E7280001F0B5F9431F23
S11349A09D4076235B42181A00229DE78020002454
S11349B0C003FF22BAE73D005246ABE73D002100A9
S11349C05246A7E73B0C9C462A04120C2B0C1400FD
S11349D0604665463F043F0C7C4342435D437B4352
S11349E0270C9B18FF18BA4203D980235B029C460C
S11349F0654424043A04240C121993015C1EA34157
S1134A003F0C920E7D191A43AD0115432B0104D5B9
S1134A1001235E466A081D40154332007F32002A96
S1134A2025DD6B0704D00F232B40042B00D0043565
S1134A302B0103D53200274B80321D40FE2A94DC23
S1134A400124A801400AD2B20C406FE78020C003C1
S1134A50074207D0054205D128434002400A444694
S1134A60FF2263E738434002400AFF225EE7012445
S1134A70A31A1B2B05DD0C400022002056E75E46DE
S1134A80CBE72A002020DA40C31A9D402B005D1E8C
S1134A90AB4113435A0704D00F221A40042A00D012
S1134AA004335A0104D5012401220C4000203DE7BF
S1134AB001249B01580A0C40002237E7802001247E
S1134AC0C00328434002400A0C40FF222EE7C046A0
S1134AD054610000FFFFFFF7F0B54F46D646464647
S1134AE04400C0B5C20F47024802400A84466646E5
S1134AF07B0A4800C90F9A46240E1500DB00000EFD
S1134B008946F600FF2800D18FE001214F464F402F
S1134B103900914266D0221A002A00DC9DE0002868
S1134B203DD1002E00D18BE0511E002900D0B5E00C
S1134B3001249B1B5A0144D59B019F09380001F0B5
S1134B40E3F805388740844200DD96E0041B3A0010
S1134B5020200134E240041BA7403B005F1EBB4100
S1134B60002413435A0704D00F221A40042A00D009
S1134B7004335A0127D50134FF2C00D179E00122F6
S1134B809B015B0AE4B22A405B02E405580AD2079F
S1134B90204310431CBC90469946A246F0BDFF2C0E
S1134BA0E0D08021C9040E431B2A7BDC3100202085
S1134BB0D140821A9640721E96410E439B1B5A01A5
S1134BC0BAD45A07D0D10122DF082A40FF2C33D1AE
S1134BD0002F00D1A8E08023DB033B435B025B0A88
S1134BE0FF24D1E7211A00294CDD00282AD0FF2C0C
S1134BF0B8D08020C00406431B2900DDAFE030009C
S1134C002027C840791A8E40711E8E4106439B1995
S1134C105901D6D50134FF2C00D185E001227A490F
S1134C201A405B080B4013439CE7002E00D070E74A
S1134C306BE73B1EC5D100227B025B0AE4B2A3E70B
S1134C4014008FE7002E4DD0481E002857D19B1921
S1134C5001245A01B5D50224E0E7002A25D1621CBB
S1134C60D2B2012A72DD9F1B7A0135D5F71A0D00E5
S1134C7064E7012200232A4086E73B00634A241AA2
S1134C8013406FE700296CD1611CC8B201284EDDC6
S1134C90FF2949D09B195B080C0063E7FF2A41D028
S1134CA00A0081E701269B1B89E7002C1CD0FF2802
S1134CB021D08024E404524223431B2A00DD96E0E1
S1134CC01C002025D440AA1A93405A1E9341234322
S1134CD0F31A04000D002DE7002F00D02EE7002268
S1134CE00024A9E70C003DE7002B58D0D243002A4A
S1134CF0EED0FF28E1D13300FF240D0032E7FF2975
S1134D0010D0010078E7002B6ED0FF24002E00D1D4
S1134D1028E780225146D203114203D06146114252
S1134D2000D13300FF241DE7FF2400232CE7002CCF
S1134D30E9D1002B63D0002E00D113E79B195A014F
S1134D4000D43EE7314A0C0013400BE7002C1ED17F
S1134D50002B2FD1002E4FD033000D0002E7012687
S1134D6055E7002C1FD1002B43D0C94300290BD099
S1134D70FF2839D01B2944DC1C002027CC40791A99
S1134D808B40591E8B4123439B19040040E7002BA1
S1134D901AD1002E24D180270022FF031BE7330001
S1134DA004000D00DEE6FF281ED08024E4044942FE
S1134DB02343DFE7002E00D1D4E69F1B7A0100D401
S1134DC037E7F31A0D00CDE6FF24002E00D1C9E623
S1134DD080225046D2031042A4D060461042A1D192
S1134DE033000D00FF24BDE63300FF24BAE601239F
S1134DF06EE733000400B5E6002700221CE7330009
S1134E00B0E60123C0E7C046FFFFFF7DFFFFFFFBC5
S1134E1041024300C20F490A1B0E00207E2B0DDD08
S1134E209D2B0CDC802000040143952B0ADC96208A
S1134E30C31AD9404842002A00D108007047034BE6
S1134E40D018FBE7963B9940F4E7C046FFFFFF7F8D
S1134E5070B5002830D0C317C4185C40C50F2000BB
S1134E6000F052FF9E231B1A962B0DDC9622D21AB9
S1134E7094402A006402640ADBB26402DB05600A1F
S1134E80D2071843104370BD992B19DC9922D21A0A
S1134E90002A29DD94402200144C1440510704D008
S1134EA00F210A40042A00D00434620113D4A4015F
S1134EB0640ADBB22A00E0E7002200230024DCE7D6
S1134EC005222100121AD140B922D21A9440621E3E
S1134ED094410C43DAE7054B2A001C409F23A401AC
S1134EE01B1A640ADBB2C8E72200D5E7FFFFFFFB09
S1134EF0F0B557464546DE464E46E0B54C000E0337
S1134F0087B0834692461D008046360B640DCF0F52
S1134F10002C4FD06F4B9C4235D08023420F1B0492
S1134F20F600134333439946C30098466A4B002660
S1134F309C460023644403932B031B0B9B466B008A
S1134F40ED0F50465B0D01955ED0624A934253D0FB
S1134F505A46D1008022400F120402430A4393466A
S1134F605246D1005C4A94460022634438006840AB
S1134F7084460290E41A16430F2E00D9B4E0574B2E
S1134F80B6009B599F460300334399466CD10023D6
S1134F909846023308260393CEE7CB464146039A4C
S1134FA00197022A65D1019B4A4C9C4600230022AA
S1134FB098466BE00300334399464ED0002E00D14F
S1134FC0BCE1300000F0A0FE03000B3B1C2B00DD15
S1134FD0ACE11D22D31A5A460100DA4008398E404A
S1134FE01300334399465B468B40984600233C4C60
S1134FF00026241A03939FE751465A46114329D1A8
S1135000002293460232B1E7594601431ED05B4663
S1135010002B00D19EE1584600F076FE03000B3BC6
S11350201C2B00DD8FE102005946083A91408B4663
S11350301D21CB1A5146D9400B0059460B4351460A
S11350409B469140264B00221B1A8FE70023012226
S11350509B468BE75146032288E700239846013399
S113506004260024039367E70323B14603930C2625
S113507062E7032A00D15CE2019B012A00D0E4E14B
S113508013409C460023002400229846002112036A
S1135090130B0A0D12051A432305124C40462240F5
S11350A0134362465B00D2075B081343190007B041
S11350B03CBC90469946A246AB46F0BD00238022F4
S11350C09C4612039846034CE0E70023014C00225F
S11350D09846DBE7FF07000001FCFFFF9461000036
S11350E00DFCFFFFFFFF0F80D94500D939E100D146
S11350F034E1002346464D469A46013C5B460A0E7F
S11351001B021A430B02170C039313041B0C3900E4
S1135110280090460193FFF717F80200019B83468D
S11351205A43280039009146FFF794F8350C0904D6
S11351300D43A9450DD95B464544013BA84500D91B
S11351403AE1A94500D837E102235B429C46454435
S1135150E3444B46EB1A390018000493FEF7F4FFBE
S1135160019B05004343390004989946FFF772F800
S1135170330409041B0C0B43994509D943446A1EA3
S1135180984500D91AE1994500D817E1023D4344F6
S11351904A469B1A5A4612042A4303999346100C12
S11351A00A0C914609045A46090C4E460D00120495
S11351B0120C4543059151437243704352190E0C2E
S11351C0B218954203D980256D02AC466044150C93
S11351D009041204090C28185218834200D2CEE0A4
S11351E000D1C8E01D1A53469E1AB245924152425C
S11351F0AB1A9A46984500D117E139001800FEF71A
S1135200A3FF019B05004343390050460493FFF775
S113521021F804980B04310C1943884209D94144FC
S11352206B1E884500D907E1884200D804E1023D9D
S11352304144049BCB1A180039000493FEF784FF01
S1135240019B82464343390004980193FFF702F817
S113525001980B043104090C194388420DD95346B3
S11352604144013B884500D9E8E0884200D8E5E0A4
S113527002235B429C464144E244019B2D04CE1A26
S113528051462943059D4F462A000B04080C1B0C6C
S11352905A4345437B4378435B19170CFB189D42E3
S11352A003D980256D02AC4660441D0C12041B0416
S11352B0120C28189B18864200D293E000D18EE08D
S11352C001231943A04BE318002B00DC99E04A07A3
S11352D000D09EE05A46D20106D55A469B4B1A404E
S11352E080239346DB00E318994A934268DD012347
S11352F0029A984C1A400023944698460022C5E628
S113530080224B46120313420AD05B46134206D155
S11353101A431203120BAC4688468E4CB6E64B4633
S11353201A431203120BBC468A4CAFE603005A46DA
S1135330283B9A4000239146984657E6584600F089
S1135340E3FC203040E603005246283B9A4000210B
S1135350934677E600F0D8FC20305FE6884500D21B
S1135360C7E64B46DE075D0843465B081E434346DB
S1135370DB079A46C2E60025924500D333E7039E35
S11353805946B446E244B245AD416D424544EB183A
S11353900139984507D2984200D97FE000D1BCE09A
S11353A01D1A8B461FE79845FAD1039D5545F2D93E
S11353B043468B461D1A16E79B46CAE61500E7E6E8
S11353C05A46C90852070A435B0590465C0D5A4683
S11353D00123029952021940120B8C4656E6002B07
S11353E000D16FE746444A1EB04529D911008642D0
S11353F000D065E7039A934200D061E762E7012198
S113540049420120C21A382A21DD029B03409C46EE
S113541038E60F220A40042A00D15BE70A00111D76
S1135420914292415242934454E7474BE318002B74
S1135430E5DD01225242F2E71D00FAE69A461CE736
S1135440B04239D86ED011003AE702933AE71F2AE6
S11354503CDC20239B1A0C005846994098404B1E74
S113546099415B46D440D340204308431A00430784
S113547009D00F230340042B05D00100081D8842E6
S11354809B415B42D21813023AD50123029A0124AC
S11354901A400023944698460022F7E50221494227
S11354A08C46039DE344AC46E244AA45AD416D42BB
S11354B04544ED182D1A96E68A1E03994D008D4237
S11354C0894149424144761803958FE71F204042A1
S11354D0C31A5846D8400300202A28D040205D46ED
S11354E0821A954029434A1E9141194307230022F9
S11354F00B4009D00F2300220B400800042BBDD120
S1135500010053075202120BC908194301238846AC
S11355100299002419408C46B8E55245BED88B4602
S1135520002560E6039D9D42C6D3110062E7002575
S1135530D8E780225B4612031A43019B1203120B25
S11355409C468846034CA1E5FF030000FFFFFFFED5
S1135550FE070000FF070000F0B557464546DE464B
S11355604E46E0B50C0398464E00230B87B0070067
S113557092469B46760DCD0F002E6BD06D4B9E420E
S113558035D080245B46420F2404DB0014431C43C3
S1135590C3009946684BA3469C46002300276644F3
S11355A0029343461C035A00DB0F5046240B520D52
S11355B0984600D176E05F4B9A426DD08023410F2C
S11355C01B040B435C49E4008C461C43C3000020CD
S11355D062444146B6186940721C019194460743DF
S11355E00F2F00D9B0E0554ABF00D25997465B4609
S11355F00343994600D087E000239B4602330827E3
S11356000293CEE742460192022867D0032800D1D4
S11356100EE2012800D062E1002300240022994612
S113562001990140CDB2002112030B0D120B1B0591
S11356301343434A240513401C436400ED076408E4
S11356402C434846210007B03CBC90469946A246EC
S1135650AB46F0BD034399464FD05B46002B00D1C7
S113566089E1584600F050FB03000B3B1C2B00DD86
S11356707AE11D22D31A3A0001005C46DA40083967
S11356808C4013008F4023439B46B94600232D4E84
S11356900027361A029384E7534623432AD1002471
S11356A0022096E75346234320D0002C00D157E133
S11356B0200000F029FB03000B3B1C2B00DD49E11B
S11356C01D21CB1A51460200D9405346083A944052
S11356D093400C431B4A121A00207AE70125019BD0
S11356E0144C1D400023002299469CE7002400220C
S11356F001206EE7534603206BE700239B460133EA
S11357000427002602934CE7032381460C270293C7
S113571047E780220023002512039946054C82E7BF
S11357205C464B4602986FE75C464B4601950298EF
S11357306AE7C046FF07000001FCFFFFD4610000D8
S1135740FFFF0F800DFCFFFF4A464946170C1A0C59
S11357501B041B0C08041900000C41431500884667
S113576019007D4379430395894629001500454373
S11357704D44029545462D0CAA46029D5544A94523
S113578006D98A46802149028946CA445146039172
S1135790290C0491414609042D04090C884629006A
S11357A0250C24044144240C0591210041438846DE
S11357B0210079438A466843414650448146080C97
S11357C048446F43824503D98021490289464F44A6
S11357D0010C894639004944029141460F04049959
S11357E03F0C88460004C019804441460491594640
S11357F00F0C0904090C884659438A463900514361
S1135800894641464A435146090C8B467B43D2188C
S11358105A44934203D980235B029B46D9445146A0
S11358200904090C8A46414661437C43130C120463
S11358304B445244A1468A463C0041466C434D4386
S113584051464D440F0C7D19A94503D980214902C5
S113585088464444049F0399B84641448B46834593
S1135860804141428846514608042F04000C3F18E9
S11358705846029910188946904292414F44BA46BC
S1135880524299469346C244D144CB448F42BF41CD
S1135890C245894199459B41934592417F42494282
S11358A02D0C52420F435B4213437F19FF185B4692
S11358B03C19DB0D059A64021C43430213435D1E2D
S11358C0AB415A46C00D034352021343E20156D57D
S11358D001205A0803401343E207134364085A485B
S11358E0604400284DDD5A0709D00F221A40042ACB
S11358F005D01A1D9A429B415B42E4181300E20151
S113590004D58020514AC00014406044504A90425B
S113591000DDE3E60125DB0862071A436402019B0C
S11359209146220B4405640D1D407CE680225946B5
S11359301203114208D0144206D122431203120B5F
S113594045469946434C6EE65B461A431203120BD6
S1135950404C68E603005446283B9C400023B9E6CB
S113596000F0D2F92030A6E60300283B9F40002334
S1135970BB4699468AE600F0C7F9203074E6B4467F
S1135980ADE701252A1A382A06DD019B00241D40B3
S113599000230022994646E61F2A21DC2025200008
S11359A0AD1A1E00AB40A840D6405D1EAB4130434B
S11359B01843D440430709D00F230340042B05D0D8
S11359C00300181D98429B415B42E418230221D531
S11359D00125019B01241D4000230022994622E653
S11359E01F2521006D42281AC1400800202A1DD01D
S11359F05F35AA1A944023435C1EA3410725034341
S1135A001D400022002D09D00F2200241A40180046
S1135A10042AD6D1030065076402220BDB082B435A
S1135A2001259946019B00241D40FCE50024E2E782
S1135A30802201251203224301991203120B0D4007
S1135A409946044CEFE5C046FF030000FFFFFFFE4C
S1135A50FE070000FF07000070B5002830D0C31710
S1135A60C4185C40C50F200000F04EF9174B184ACB
S1135A701B1AD21A1F2A18DD164AD21A9440002281
S1135A8024035B05240B5B0D0021100024030A0D85
S1135A90240B12052243104C1B05224013435B00C8
S1135AA0ED075B082B43190070BD210091400A00EB
S1135AB00B21081AC4405B052403240B5B0DE3E7A8
S1135AC00025002300240022DEE7C0461E04000057
S1135AD03304000013040000FFFF0F804100090E8F
S1135AE04B1C70B5DBB24602750AC40F012B14DDE2
S1135AF0E0239B006D07360BCB1800210A0D28000C
S1135B0012051C4D32435B052A405B0813435B00BE
S1135B10E4075B082343190070BD002914D1002D4C
S1135B201ED0280000F0F0F80A281CDC0B232A0001
S1135B301B1ADA40030015339D400F4B12031B1A46
S1135B405B05160B5B0DD8E7002D06D0320B8026C3
S1135B5036036D071643094BCFE7084B0026CCE705
S1135B6000230026C9E703002A000B3B9A400025C6
S1135B70E3E7C046FFFF0F8089030000FF07000032
S1135B80F0B54C00640D0B03621C450F5B0A520513
S1135B902B43C90FC500520D012A28DD3A4AA61825
S1135BA0FE2E1BDC002E3EDD80010200501E8241D1
S1135BB06D0F2A43DB0013435A0704D00F221A4007
S1135BC0042A00D004338022D2041A405AD0013669
S1135BD0FF2E03D09B015B0AF4B201E0FF240023F3
S1135BE05802E405400AC90720430843F0BD002CCD
S1135BF007D01D43F2D08020DB0080040343FF263E
S1135C00DAE72B4303D00523DB08FF2C03D05B0228
S1135C105B0AE4B2E4E7002B32D08020C0030343E4
S1135C205B025B0ADCE73200173214DB80221E279A
S1135C3012041343BF1B1F2F0FDC144A9446644401
S1135C402A00A5402E00A340751EAE41FA403343FE
S1135C5013430026B0E70024D5E702225242961BE4
S1135C601A00F240202F09D0094884466444A34016
S1135C702B435D1EAB41002613439DE70023F7E74A
S1135C800023ADE73400BFE780FCFFFF82FCFFFF89
S1135C90A2FCFFFF8446081C6146FFE71FB500F025
S1135CA0B7F8002801D40021C8421FBD10B500F088
S1135CB049F84042013010BD10B500F0A9F80028A1
S1135CC001DB002010BD012010BDC04610B500F05E
S1135CD09FF8002801DD002010BD012010BDC04642
