S00D00006770696F322E7372656336
S1130000282000206D1700000118000001180000CE
S113001000000000000000000000000000000000DC
S113002000000000000000000000000001180000B3
S1130030000000000000000001180000011800008A
S11300400118000001180000011800000118000048
S11300500118000001180000011800000118000038
S11300600118000001180000011800000118000028
S11300700118000001180000011800000118000018
S11300800118000001180000011800000118000008
S113009001180000011800000118000001180000F8
S11300A001180000011800000118000001180000E8
S11300B00000000010B5064C2378002B07D1054B37
S11300C0002B02D0044800E000BF0123237010BDC0
S11300D004000020000000000C400000084B10B594
S11300E0002B03D00749084800E000BF0748036815
S11300F0002B00D110BD064B002BFBD09847F9E72D
S113010000000000080000200C4000000C4000002B
S11301100000000080B582B000AF104B1B68002BBC
S113012012D1EFF310837B607B68002B09D172B688
S1130130BFF35F8F0A4B00221A700A4B01221A7018
S113014002E0084B00221A70044B1B685A1C034B34
S11301501A60C046BD4602B080BDC04620000020E3
S1130160000000202400002080B500AF0B4B1B686A
S11301705A1E0A4B1A60094B1B68002B0AD1084B04
S11301801B78DBB2002B05D0064B01221A70BFF39B
S11301905F8F62B6C046BD4680BDC04620000020C9
S11301A0240000200000002080B582B000AF7860F9
S11301B07B6800221A70C046BD4602B080BD0000B4
S11301C080B582B000AF02003960FB1D1A70FB1DC0
S11301D01B78042B27D89A00164BD3181B689F460C
S11301E0154B154A51693A680A435A611DE0124B8E
S11301F0114A91693A680A439A6116E00E4B0E4A15
S1130200D1693A680A43DA610FE00B4B0A4A116A72
S11302103A680A431A6208E0074B074A516A3A6887
S11302200A435A6201E0172300E000231800BD4688
S113023002B080BD203D00000004004080B582B0C3
S113024000AF78607B6880221A707B6800225A7045
S11302507B6801229A707B680022DA70C046BD4632
S113026002B080BD80B582B000AF0200FB1D1A70E1
S1130270FB1D1B78002B02D0012B07D00DE0084B8F
S1130280074AD26902210A43DA6106E0044B044AB0
S1130290D26904210A43DA61C046BD4602B080BD7A
S11302A00014004080B584B000AF78607B681B68A0
S11302B0FB60FB681B8C9BB2002B01D0012300E088
S11302C000231800BD4604B080BD000080B584B092
S11302D000AF78600E4BBB600023FB6010E0FB684E
S11302E09B0010229446BC446344083B1A687B6814
S11302F09A4202D1FB68DBB206E0FB680133FB6083
S1130300FB68002BEBD000231800BD4604B080BD71
S1130310000C004380B582B000AF78607B68002297
S11303201A707B6800225A707B6800229A707B687E
S11303300022DA707B6800221A837B6800221A622A
S11303407B680022DA617B6801221A717B68C02213
S11303505201DA807B6800221A727B6800225A728A
S11303607B6800229A727B680022DA727B68002222
S11303701A737B682A22002199547B6800225A73DD
S11303807B6800229A737B680022DA737B68002200
S11303901A617B6800221A757B6824220021995413
S11303A07B680022DA847B6800221A857B6800223D
S11303B05A75C046BD4602B080BD000080B59CB0F1
S11303C000AF02003960FB1D1A700C23FA18164B9B
S11303D01000190060231A00144B9847144BFB6655
S11303E013223B689A421AD30C23FB183A689200F2
S11303F0D358FB660823FB1818000E4B98470823B4
S1130400FB1800229A700823FB1801221A70FB6E55
S1130410DBB20822BA1811001800074B9847C046EF
S1130420BD461CB080BDC046343D00000D3D0000FB
S1130430FFFF00003D020000750C000080B58AB08B
S113044000AFB9607A600F23FB18021C1A702723CF
S1130450FB1800221A7010233B621F23FB18002292
S11304601A70BB681B68BB611423FB181800C54BCA
S113047098477B681A781423FB181A701E221423D9
S1130480FB1819001000C04B98471E231800BF4BDF
S113049098477B681B791A000F23FB181B781100FF
S11304A01800BB4B98477B68DB881A000F23FB18A6
S11304B01B7811001800B64B98471E23FB18002226
S11304C01A701AE07B681B691E22BA18127801217F
S11304D091400A00134009D01E23FB181A780F23F9
S11304E0FB181B7811001800A94B98471E23FB1812
S11304F01A781E23FB1801321A701E23FB181B786E
S113050013229342DED97B685B7B9B015AB27B68E2
S11305109B7BDB015BB213435BB2DAB2BB691A703B
S11305207B681B7DDB015AB27B685B785BB213434B
S11305305BB2DAB2BB699A707B68DB78342B46D83D
S11305409A00944BD3181B689F462723FB187A689C
S1130550527A1A701F23FB187A68127A1A701023C1
S11305603B6236E02723FB1801221A701F23FB1875
S113057002221A7010233B622BE02723FB1802226D
S11305801A701F23FB1804221A7010233B6220E008
S11305902723FB1801221A701F23FB1806221A7046
S11305A010233B6215E02723FB1800221A701F2337
S11305B0FB1808221A7010233B620AE030233B62C6
S11305C007E020233B6204E000233B6201E01723A1
S11305D0A7E12723FB181B781B01DBB27022134011
S11305E0DAB21F23FB181B781343DAB2BB691A7300
S11305F0C046BB681800684B9847031EF9D17B6856
S11306005B7D3F2B01D917238BE17B685B7D5AB25D
S11306107B68DB7BDB015BB213435BB2DAB2BB69A1
S11306205A73C046BB6818005B4B9847031EF9D148
S11306307B689A78BB695A707B6824229B5C9BB266
S1130640DB009AB23B6A9BB213439AB27B681B7B72
S11306509BB29B009BB213439AB27B689B7A9BB27A
S1130660DB189BB213439AB27B68DB7A9BB21343C9
S11306709AB2BB695A81C046BB681800464B98477A
S1130680031EF9D17B681B8B002B00D1BFE03B6AB2
S1130690102B00D18EE002D8002B4DD0B7E0202BD8
S11306A023D0302B00D0B2E07B68DB7A002B11D052
S11306B07B68DB697F2B0BDC7B68DB69803307DBC2
S11306C07B681B6A7F2B03DC7B681B6A803301DA3F
S11306D0172326E17B68DB69FF2B04DC7B681B6A3C
S11306E0FF2B00DC8CE017231BE17B68DB7A002BFB
S11306F015D07B68DB69294A93420EDC7B68DB6991
S1130700274A934209DB7B681B6A244A934204DC30
S11307107B681B6A224A934201DA172301E17B6852
S1130720DB69204A934205DC7B681B6A1D4A9342BD
S113073000DC67E01723F4E07B68DB7A002B15D03C
S11307407B68DB69184A93420EDC7B68DB69174AD5
S1130750934209DB7B681B6A134A934204DC7B687F
S11307601B6A124A934201DA1723DAE07B68DB69D9
S11307700F4A934204DC7B681B6A0D4A934243DDB3
S11307801723CEE0A9010000150A0000550A000055
S1130790BD030000943D0000A5020000FF0100001D
S11307A000FEFFFFFF030000FF07000000F8FFFF4B
S11307B0FF0F00007B68DB7A002B15D07B68DB69B8
S11307C05A4A93420EDC7B68DB69594A934209DB3F
S11307D07B681B6A554A934204DC7B681B6A544A53
S11307E0934201DA17239CE07B68DB69514A934208
S11307F004DC7B681B6A4F4A934207DD172390E0B1
S1130800C04604E0C04602E0C04600E0C046BB6902
S11308105B899AB27B681B8B13439AB2BB695A817A
S1130820C046BB681800444B9847031EF9D17B6847
S1130830DB699AB2BB69DA81C046BB6818003E4BDB
S11308409847031EF9D17B681B6A9AB2BB691A8266
S1130850C046BB681800384B9847031EF9D17B6823
S1130860DA887B681B799BB213439AB2BB691A81FD
S1130870C046BB681800304B9847031EF9D17B680B
S11308802A229A5CBB69DA70BB6907221A717B68F9
S113089024229B5C002B2CD07B68DB8C274A934260
S11308A001D917233DE07B68DA8CBB695A82C046C4
S11308B0BB681800204B9847031EF9D17B68282297
S11308C09B5E1F4A934205DC7B6828229B5E1D4A7F
S11308D0934201DA172324E07B6828229B5E9AB2B4
S11308E0BB699A82C046BB681800134B9847031E25
S11308F0F9D1154B1B680022D3409BB21B029AB25C
S1130900E023DB0013409AB20F4B1B680321CB405A
S11309109BB207210B409BB213439AB2BB699A85E1
S113092000231800BD460AB080BDC046FF7F00000A
S11309300080FFFFFFFF0000A5020000FF0F000082
S1130940FF07000000F8FFFF2060800090B587B02B
S113095000AFF860B9607A601723FC18BB68180010
S11309601D4B984703002370FB68BA681A6008217E
S113097003201A4B9847BB681B78DBB21A0001238B
S1130980134001D0052323E0C046FB681800144B34
S11309909847031EF9D1BB681B78DBB21A00022307
S11309A0134001D01C2313E07B685A78FB681A714A
S11309B0FB681B79002B02D101200A4B98477A6807
S11309C0F9681723FB181B781800074B9847030096
S11309D01800BD4607B090BDCD020000C101000063
S11309E0A5020000650200003D04000080B500AFD0
S11309F0024B9847C046BD4680BDC0461501000065
S1130A0080B500AF024B9847C046BD4680BDC04686
S1130A106901000080B582B000AF02003960FB1D9F
S1130A201A70FB1D1B781800084B98470849FB1DDA
S1130A301B783A68127810000F22024020339B0082
S1130A405A50C046BD4602B080BDC046AD0A000043
S1130A500018004080B582B000AF0200FB1D1A7080
S1130A600F4B98470F49FB1D1B780E48FA1D12784F
S1130A702032920012584020024320339B005A50E7
S1130A80C046084AFB1D1B7820339B009B5840221C
S1130A901340F6D0044B9847C046BD4602B080BD13
S1130AA0ED09000000180040010A000080B582B082
S1130AB000AF0200FB1D1A700F4B98470F49FB1D36
S1130AC01B780E48FA1D12782032920012584020EA
S1130AD0824320339B005A50C046084AFB1D1B78B2
S1130AE020339B009B5840221340F6D1044B984777
S1130AF0C046BD4602B080BDED09000000180040AC
S1130B00010A000080B584B000AF0200FB1D1A701A
S1130B100F23FB18FA1D1278D2091A700E23FB1842
S1130B20FA1D127852091A700D4BBB600F23FB1883
S1130B301B78002B0FD10F23FB181B789B0010226E
S1130B409446BC446344083B1A680E23FB181B7884
S1130B50DB01D31800E000231800BD4604B080BDBB
S1130B600028004080B588B000AFF860B9607A60B2
S1130B700023FB617B68DB7801225340DBB2002B4E
S1130B8035D07B681B78802B0BD0FB698022520206
S1130B901343FB617B681B781B061A00FB69134334
S1130BA0FB617B685B78002B03D07B685B78022B4E
S1130BB010D1FB69802292021343FB617B689B780E
S1130BC0002B04D0FB698022D2021343FB61FB6833
S1130BD0BA685A607B685B78012B03D07B685B78CA
S1130BE0022B07D1FB69224A1340FB6102E0FB6838
S1130BF0BA685A60BB681B041B0CBB61BB681B0C46
S1130C007B61BA69FB691343A022D2051A43FB68CE
S1130C109A627A69FB691343D02212061A43FB686D
S1130C209A627B68DB7801225340DBB2002B1AD036
S1130C30FA698023DB0213400AD07B689B78012B7E
S1130C4003D1FB68BA689A6102E0FB68BA685A612A
S1130C507B685B78012B03D07B685B78022B02D125
S1130C60FB68BA689A60C046BD4608B080BDC046FD
S1130C70FFFFFBFF80B584B000AF02003960FB1DAD
S1130C801A70FB1D1B7818000A4B98470300FB6081
S1130C90FB1D1B781F22134001229A401300BB60E6
S1130CA03A68B968FB681800034B9847C046BD46CC
S1130CB004B080BD050B0000650B000080B582B058
S1130CC000AF78607B6800221A70C046BD4602B04F
S1130CD080BD000080B582B000AF02003960FB1D0A
S1130CE01A70FB1D1B78042B27D89A00164BD318B7
S1130CF01B689F46154B154A51693A680A435A6165
S1130D001DE0124B114A91693A680A439A6116E050
S1130D100E4B0E4AD1693A680A43DA610FE00B4B75
S1130D200A4A116A3A680A431A6208E0074B074AFA
S1130D30516A3A680A435A6201E0172300E000232B
S1130D401800BD4602B080BD683E000000040040AB
S1130D5080B582B000AF78607B6880221A707B68AF
S1130D6000225A707B6801229A707B680022DA7034
S1130D70C046BD4602B080BD80B584B000AF786087
S1130D800023FB600CE00A4BFA689200D2587B689F
S1130D909A4202D1FB68DBB206E0FB680133FB60D8
S1130DA0FB68022BEFD900231800BD4604B080BDB8
S1130DB07C3E000090B585B000AF786039600F23A9
S1130DC0FC183B681800AE4B9847030023707B68FF
S1130DD000221A600F23FB181A78AA4B9200D258EB
S1130DE07B685A607B680022DA727B6800221A737F
S1130DF07B6800225A737B6800229A727B68002207
S1130E001A727B6800225A727B680022DA617B685E
S1130E1000221A627B6800225A627B6800229A626E
S1130E207B6800221A757B6800225A757B68002251
S1130E309A757B680022DA757B6800221A767B68D3
S1130E4000225A767B6800221A747B6800225A7446
S1130E507B6800229A747B680022DA747B682C22F7
S1130E60002199547B682D22002199547B682E22FD
S1130E70002199547B682F22002199547B683022E9
S1130E80002199547B683122002199547B683222D5
S1130E90002199547B683322002199547B683422C1
S1130EA0002199547B683522002199547B683622AD
S1130EB0002199547B683722002199547B68382299
S1130EC0002199547B683922002199547B683A2285
S1130ED0002199547B683B22002199547B683C2271
S1130EE0002199547B683D22002199547B683E225D
S1130EF0002199547B683F22002199547B68402249
S1130F00002199547B684122002199547B68422234
S1130F10002199547B684322002199547B68442220
S1130F20002199547B684522002199547B6846220C
S1130F30002199547B684722002199547B684822F8
S1130F40002199547B684922002199547B684A22E4
S1130F50002199547B684B22002199547B684C22D0
S1130F60002199547B684D22002199547B684E22BC
S1130F70002199547B684F22002199547B685022A8
S1130F80002199547B685122002199547B68522294
S1130F90002199547B685322002199547B68542280
S1130FA0002199547B685522002199547B6856226C
S1130FB0002199547B685722002199547B68982218
S1130FC0002199547B6800229A657B6800229A6705
S1130FD07B689922002199547B680022DA657B683A
S1130FE00022DA677B689A22002199547B680022E8
S1130FF01A667B688022002199507B689B2200211D
S113100099547B6800225A667B6884220021995097
S11310107B689C22002199547B6800229A667B6835
S11310208822002199507B689D22002199547B6875
S11310300022DA667B688C22002199507B689E220C
S1131040002199547B6800221A677B689022002152
S113105099507B689F22002199547B6800225A672B
S11310607B689422002199507B68A0220121995425
S11310707B68A12200219954C046BD4605B090BDAD
S1131080790D0000983E000080B586B000AFB960CD
S11310907A600F23FB18021C1A7000237B61002363
S11310A03B611DE0BA683B69D31810331B78012BF0
S11310B013D10F23FB181B781B4AD35C1A003B691E
S11310C09A4201DA17232AE080235A043B699A40A2
S11310D013001A007B6913437B613B6901333B6155
S11310E03B69032BDEDDBB68A1229B5C002B04D093
S11310F07B698022120113437B61BB685B7B1B030A
S11311001A007B6913437B61BB681B7B1B021A00BB
S11311107B6913437B617B687A691A60002318003A
S1131120BD4606B080BDC046A43E000080B586B072
S113113000AFB9607A600F23FB18021C1A701723E2
S1131140FB1800221A70BB681B7A002B07D01723E8
S1131150FB181722BA18127804210A431A70BB68C4
S11311609B7A012B07D11723FB181722BA18127880
S113117001210A431A707B681722BA1812781A7070
S1131180C046BD4606B080BD80B588B000AFB9602A
S11311907A600F23FB18021C1A700F23FB181A78AD
S11311A01B23FB183E498A5C1A700023FB616EE026
S11311B0FA6913009B009B185B002833BA68D318A4
S11311C004337B617B695B7A1B22BA1812789A42DA
S11311D001D817235FE07B691B780F2B01D91723F4
S11311E059E07B691B781B061A00F0231B051A4083
S11311F07B695B781B041900FF231B040B401A4313
S11312007B699B78002B01D0802300E000231A43E4
S11312107B69DB78002B01D0082300E000231A430C
S11312207B691B79002B01D0102300E000231A43B3
S11312307B695B79190003230B401A437B699B7913
S11312405B01190060230B401A437B69DB791B02A5
S11312501900C0239B000B401A437B691B7A1B03B4
S11312601900E023DB010B401A437B695B7A9B0284
S11312701900C0231B010B4013433B61FB699B0016
S11312807A68D3183A691A60FB690133FB61FB6918
S1131290012B8DDD00231800BD4608B080BDC0467B
S11312A0A43E000080B588B000AFB9607A600F2317
S11312B0FB18021C1A700F23FB181A781723FB184B
S11312C02D498A5C1A700023BB610023FB6148E04E
S11312D0BA685021FB69D3185B181B78002B10D017
S11312E01723FB181A78FB699A4201D817233FE0A9
S11312F080235A02FB699A4013001A00BB69134306
S1131300BB61BA68FB691C335B00D31809331B78D3
S1131310002B23D01723FB181A78FB699A4201D8B3
S1131320172325E0BA68FB691C335B00D318093323
S11313301B78022B0AD10223FF331A00FB699A405F
S113134013001A00BB691343BB6107E00122FB6968
S11313509A4013001A00BB691343BB61FB69013354
S1131360FB61FB69072BB3D97B68BA691A60002358
S11313701800BD4608B080BDA83E000080B588B006
S113138000AFB9607A600F23FB18021C1A700F2398
S1131390FB181A781723FB181D498A5C1A70BB685E
S11313A010333B613B695B7A1B011A0030231A40FE
S11313B03B691B7A190007230B401343BB610023CD
S11313C0FB611AE03A69FB69D31804331B78002BDC
S11313D010D01723FB181A78FB699A4201DC1723F3
S11313E012E080235A02FB699A4013001A00BB6979
S11313F01343BB61FB690133FB61FB69032BE1DD33
S11314007B68BA691A6000231800BD4608B080BD25
S1131410A43E000090B591B000AFF860B9607A6066
S11314203B23FC18BB681800BF4B9847030023708C
S11314303B23FB181A78BD4B9200D35819000220A5
S1131440BB4B9847BB681B680222134001D01C2386
S113145065E1BB681B680122134001D01C235EE1D7
S11314603B23FB181A78B34B9200D3587B637B68F9
S11314701A687B6B9A4204D87B685A687B6B9A42E1
S113148001D917234BE10023FB630EE07A68FB6B61
S113149006339B00D31804331A687B6B9A4201D934
S11314A017233CE1FB6B0133FB63FB6B032BEDDD8B
S11314B00023FB6319E07A689821FB6BD3185B184F
S11314C01B7801225340DBB2002B0AD13B23FB18CB
S11314D01B78994AD35C1A00FB6B9A4202DC1723EF
S11314E01DE1C046FB6B0133FB63FB6B072BE2DDA5
S11314F00023FB623323FC182C23FA1879683B235E
S1131500FB181B7818008D4B984703002370332376
S1131510FB181B78002B03D03323FB181B78FEE049
S11315202B23FA1879683B23FB181B781800844B8B
S113153098473323FC182023FA1879683B23FB18B7
S11315401B7818007F4B9847030023703323FB1844
S11315501B78002B03D03323FB181B78DFE0002318
S1131560FB613323FC181C23FA1879683B23FB180E
S11315701B781800744B9847030023703323FB181F
S11315801B78002B03D03323FB181B78C7E03323CD
S1131590FC181823FA1879683B23FB181B781800E9
S11315A06A4B9847030023703323FB181B78002BE6
S11315B003D03323FB181B78B1E0FB68BA681A60C8
S11315C07B68A0229A5CFB681A711423FB1818002C
S11315D05F4B98477B68DA7A1423FB181A703B2315
S11315E0FB181B785B4AD35C1422BA18110018004C
S11315F0594B98473B23FB181B78564AD35C180079
S1131600564B98470023FB632DE07A689821FB6BC7
S1131610D3185B181B7801225340DBB2002B1ED178
S11316201023FB1818004E4B98477B68FA6B1E3248
S11316309200D358DAB21023FB181A701023FB1847
S113164001225A707B68FA6B16329200D358DBB2CF
S11316501022BA1811001800424B984700E0C04607
S1131660FB6B0133FB633B23FB181B78324AD35CCF
S11316701A00FB6B9A42C8DCFA6ABB681A60C0465F
S1131680BB689B6804221340FAD1BB68FF221A711D
S1131690C046BB689B6804221340FAD12B23FB1875
S11316A01A78BB685A712023FB181A68BB68DA6081
S11316B02023FB185A68BB681A61FA69BB689A61EF
S11316C0BA69BB68DA63C046BB689B6810221340E2
S11316D0FAD17B681A68BB685A637B685A68BB682E
S11316E01A640023FB6310E07A68FB6B06339B00EB
S11316F0D31804331A68B968FB6B10339B00CB18FA
S113170004331A60FB6B0133FB633B23FB181B7828
S1131710154AD35C1A00FB6B9A42E5DC00231800DF
S1131720BD4611B090BDC046790D00008C3E00004E
S1131730D50C0000983E0000A83E0000891000006F
S11317402D11000089110000A51200007D13000076
S1131750BD0C0000883E0000150A0000550A000078
S1131760510D0000750C0000A43E000080B582B04D
S113177000AF194B7B60194B3B607A683B689A4217
S11317800CD007E03B681A1D3A607A68111D796035
S113179012681A603A68124B9A42F3D3114B3B60B9
S11317A004E03B681A1D3A6000221A603A680E4B46
S11317B09A42F6D30D4B7B600D4B7A68FF218A4326
S11317C09A600C4A536880210B4353600A4B984734
S11317D00A4B9847FEE7C0460C400000000000207A
S11317E00400002004000020280000200000000065
S11317F000ED00E000400041C53C0000891B0000F2
S113180080B500AFFEE780B582B000AF78607B683A
S113181080221A707B6800225A707B6801229A70B9
S11318207B680022DA70C046BD4602B080BD80B538
S113183082B000AF78607B6800221A707B68002257
S11318405A707B6800229A70C046BD4602B080BDC3
S113185080B582B000AF7860144A7B681B78191C8D
S11318600F230B40D9B2D3690F200140090410485B
S113187003400B43D3610D4A7B685978D369012037
S11318800140C901802083430B43D361074A7B682D
S11318909978D369012001408901402083430B4397
S11318A0D361C046BD4602B080BDC04600140040AE
S11318B0FFFFF0FF80B584B000AF78607B681B68E1
S11318C0FB60FB681B8C9BB2002B01D0012300E062
S11318D000231800BD4604B080BD80B586B000AFBB
S11318E078607B681B683B613B699B79DBB2FB607A
S11318F000237B61FB680122134003D07B69012232
S113190013437B61FB680422134003D07B690222EA
S113191013437B61FB680222134003D07B690422DA
S113192013437B617B691800BD4606B080BD80B55A
S113193084B000AF786039607B681B68BB600023AB
S1131940FB603B680122134003D0FB680122134370
S1131950FB603B680222134003D0FB68042213435C
S1131960FB603B680422134003D0FB68022213434C
S1131970FB60FB68DAB2BB689A71C046BD4604B02E
S113198080BD000080B584B000AF78607B681B68C0
S1131990FB60C0467B6818000E4B9847031EF9D1C4
S11319A0FB6807221A71FB6807229A71FB681B788F
S11319B0DBB202221343DAB2FB681A70C0467B68BA
S11319C01800044B9847031EF9D100231800BD46A4
S11319D004B080BDB518000080B584B000AF786055
S11319E07B681B68FB60C0467B6818000B4B9847FC
S11319F0031EF9D1FB681B7EDBB202221343DAB269
S1131A00FB681A76C0467B681800044B9847031E8F
S1131A10F9D1C046BD4604B080BDC046B51800002B
S1131A2080B584B000AF786039607B681800144BCF
S1131A30984702000123134001D105231CE07B6871
S1131A401B68FB60FB689B8C9AB23B681A807B68BE
S1131A50012118000B4B98477B681800084B9847E6
S1131A6002000423134006D07B6804211800054BB0
S1131A7098471E2300E000231800BD4604B080BD33
S1131A80DB1800002F19000080B584B000AF786027
S1131A900A00FB1C1A707B681B68FB60C0467B68ED
S1131AA018000E4B9847031EF9D1FB681B899BB2A3
S1131AB01F2293439AB2FB1C1B789BB213439AB226
S1131AC0FB681A81C0467B681800044B9847031EC4
S1131AD0F9D1C046BD4604B080BDC046B51800006B
S1131AE0F0B587B000AFF8607A600B23FB180A1CCE
S1131AF01A700B23FB181A78FB6811001800194B95
S1131B009847FB681800184B98471623FA18FB6887
S1131B1011001800154B98471623FB181B881A0050
S1131B20134B10009847134C0022134BA04703009B
S1131B300C001D002600114B7868984702000B002A
S1131B400F4C28003100A04703000C0019002200AC
S1131B500C4B080011009847031C181CBD4607B025
S1131B60F0BDC046891A0000D9190000211A0000EE
S1131B7089380000212D000000E06F400D3900007D
S1131B8089330000B139000090B5EBB000AFF64ADC
S1131B90137D0C210B431375CA235B00FB1818003B
S1131BA0F24B9847CA235B00FB1804221A70CA231D
S1131BB05B00FB181800EE4B9847A823FF33FB1873
S1131BC070221A70EB4AF023FB1811001800EA4B3C
S1131BD09847F023FB1800221A73A823FF33FB183D
S1131BE01A78F023FB185A60F023FB1802221A76A5
S1131BF0A823FF33FB181B785B08DBB21A00F02321
S1131C00FB18DA61F023FB18982201219954F02380
S1131C10FB1804229A65F023FB1804229A67A82370
S1131C20FF33FB181B785B08DBB21A00F023FB18A8
S1131C301A62F023FB18992201219954F023FB180E
S1131C400522DA65F023FB180422DA67F023FA1878
S1131C50C849E823FB181800C84B9847C84A4423CE
S1131C60FB1811001800C44B9847C64BD4225200ED
S1131C709446BC44634400221A73A823FF33FB1820
S1131C801A78C04BD42149008C46BC4463445A6042
S1131C90BC4BD42252009446BC44634402221A76BC
S1131CA0A823FF33FB181B785B08DBB21A00B54B83
S1131CB0D42149008C46BC446344DA61B14BD4223C
S1131CC052009446BC446344982201219954AD4B7C
S1131CD0D42252009446BC44634406229A65A94B1C
S1131CE0D42252009446BC44634404229A67A82335
S1131CF0FF33FB181B785B08DBB21A00A14BD4211D
S1131D0049008C46BC4463441A629E4BD422520060
S1131D109446BC446344992201219954994BD4229A
S1131D2052009446BC4463440722DA65954BD4229E
S1131D3052009446BC4463440422DA674423FA18EC
S1131D408F493C23FB1818008C4B98478E4BD422A8
S1131D5052009446BC4463441B688B4AD421490016
S1131D608C46BC4462441268D26BD203D20FD2B206
S1131D7001214A40D1B2DA6B0120014009048348B1
S1131D8002400A43DA63804BD42252009446BC4496
S1131D9063441B687C4AD42149008C46BC44624499
S1131DA01268D26B9203D20FD2B201214A40D1B24F
S1131DB0DA6B012001404904754802400A43DA63A2
S1131DC03823FB181800734B9847734BD4225200E6
S1131DD09446BC44634400229A706F4BD422520050
S1131DE09446BC44634401221A703823FB1819003A
S1131DF003206A4B98473823FB1819002720674BA8
S1131E0098470C23FB181800654B9847654BD42260
S1131E1052009446BC4463443022DA700C23FA180E
S1131E2061493B1D1800614B98473B1D1800604BEE
S1131E309847E823FB181B68E822BA18126812684E
S1131E4002210A431A60504BD42252009446BC44E7
S1131E5063441B684C4AD42149008C46BC44624408
S1131E601268126802210A431A60D3235B00FB182C
S1131E700A221A70A623FF33FB1800221A7080224C
S1131E80D2053B1D012118004A4B9847031CD02260
S1131E905200BA1813608022D2053B1D0F2118008E
S1131EA0444B9847031CCE225200BA181360424B8D
S1131EB0CE225200BA181168D0225200BA18106803
S1131EC09847031C1A1C3D4B111CD0225200BA180F
S1131ED010689847031C1C1CA823FF33FB181A78AE
S1131EE0374B10009847021C364B111C201C984796
S1131EF0031C1A1C314B8021C905101C9847031C74
S1131F001A1C9C23FF33FC182F4B101C984703000A
S1131F102370CD235B00FB189C22FF32BA18127881
S1131F201A70144B9C22FF32BA1812785A64114B5F
S1131F309C22FF32BA1812789A64114B9C22FF3209
S1131F40BA1812785A640E4B9C22FF32BA181278CF
S1131F509A64084B00225A63094BD3225200BA18E0
S1131F60127852B25A638AE7000C00402F1800001E
S1131F705118000000140042B50D000015140000B3
S1131F80001800429CFEFFFF94FEFFFFFFFFFEFFD0
S1131F90FFFFFDFF0718000090FEFFFF750C000017
S1131FA01503000064FEFFFF000C00434D09000010
S1131FB085190000E11A00001521000039240000F1
S1131FC0812C0000C9260000E520000000224308FF
S1131FD08B4274D303098B425FD3030A8B4244D3ED
S1131FE0030B8B4228D3030C8B420DD3FF2209022F
S1131FF012BA030C8B4202D31212090265D0030BEE
S11320008B4219D300E0090AC30B8B4201D3CB03E3
S1132010C01A5241830B8B4201D38B03C01A524125
S1132020430B8B4201D34B03C01A5241030B8B4227
S113203001D30B03C01A5241C30A8B4201D3CB0212
S1132040C01A5241830A8B4201D38B02C01A5241F7
S1132050430A8B4201D34B02C01A5241030A8B42FA
S113206001D30B02C01A5241CDD2C3098B4201D312
S1132070CB01C01A524183098B4201D38B01C01A90
S1132080524143098B4201D34B01C01A5241030907
S11320908B4201D30B01C01A5241C3088B4201D3B6
S11320A0CB00C01A524183088B4201D38B00C01A63
S11320B0524143088B4201D34B00C01A5241411A8A
S11320C000D20146524110467047FFE701B5002097
S11320D000F006F802BDC0460029F7D076E7704745
S11320E07047C0469E2110B5C905041C01F01AFDB5
S11320F0002803D1201C00F0A3FD10BD9E21201C4C
S1132100C90500F001FC00F09BFD80231B069C46E2
S11321106044F2E7F0B5C6464E024702760A7B0AEF
S11321204400C50FF7004800984600B5240E2A0065
S1132130DB00000EC90FBC468D4267D0221A002A6C
S113214000DCA5E000283AD1002F00D193E0511E15
S1132150002900D0BCE00124DB1B5A0146D59B01B9
S11321609E09300001F0E8FC05388640844200DD19
S11321709DE0041B320020200134E240041BA640F1
S113218033005E1EB341002413435A0704D00F22C8
S11321901A40042A00D004335A0129D50134FF2CF3
S11321A000D181E02A009B015B0AE4B25B02E405F2
S11321B0580AD2072043104304BC9046F0BDFF2CBC
S11321C0E3D080213800C904084384461B2A00DD7B
S11321D082E020206146D140821A6046904002008D
S11321E0501E82410A439B1A5A01B8D45A07CED1D1
S11321F0DE082A00FF2C3AD1002E00D1AEE0802365
S1132200DB0333435B025B0AFF24CFE7211A002977
S113221052DD002831D0FF2CB7D080203E00C0040E
S11322200643B4461B2900DDAAE020266046C840C8
S1132230711A66468E4031004E1EB14101435B184F
S11322405901D3D50134FF2C00D187E0012278490C
S11322501A405B080B40134397E7002C00D0A7E01B
S1132260002B00D0B6E03B1E62D100260022730290
S11322705B0AE4B29AE7140087E7002F4DD0481EAA
S1132280002857D1634401245A01AFD50224DDE765
S1132290002A24D1621CD2B2012ADEDDDE1B7201C7
S11322A035D5FE1A0D005CE72A0000237EE73300D3
S11322B0604A241A134068E7002963D1611CC8B23C
S11322C001284EDDFF2949D063445B080C005CE71C
S11322D0FF2A41D00A0079E701229B1A84E7002CE7
S11322E01DD0FF2822D08024E404524223431B2A19
S11322F000DD8AE01C002025D440AA1A93405A1E0F
S11323009341234362460400D31A0D0025E7002EAF
S113231000D026E700220024A9E70C0035E7002BB3
S11323204DD0D243002AEDD0FF28E0D16346FF24EC
S11323300D002AE7FF290FD0010073E7002B61D0BD
S1132340FF24002F00D120E780224146D20311420E
S113235002D0164200D13B00FF2416E7FF240023DD
S113236024E7002CEAD1002B58D0002F00D10CE731
S113237063445A0100D439E72E4A0C00134004E7A1
S113238001215CE7002C1ED1002B40D0C943002959
S11323900BD0FF2836D01B2947DC1C002026CC405C
S11323A0711A8B40591E8B4123436344040047E751
S11323B0002B18D13B1E2DD00D00FF24E5E63B0079
S11323C004000D00E1E6FF281CD08024E404494207
S11323D02343E0E7002F00D1D7E6DE1B72011FD5AF
S11323E0FB1A0D00D1E6FF24002F00D1CDE6802298
S11323F04046D2031042AFD01642ADD13B000D008F
S1132400FF24C2E66346FF24BFE601237AE73B00CC
S11324100400BAE680260022F603F0E63B00B4E6A8
S1132420331E00D0E2E6002221E70123BDE7C046C7
S1132430FFFFFF7DFFFFFFFBF0B557464E46DE462C
S11324404546E0B544024300C60F83B00F1C640A3E
S11324501B0EB24653D0FF2B27D08022E400D204B7
S113246014437F22524290469844002399469B4647
S11324707D027800FB0F6D0A000E009324D0FF2824
S113248046D080230021ED00DB041D437F384746FE
S1132490381A4F460F43BF00B9463300009A874F9E
S11324A053404A46BA5801939746002C4ED108230C
S11324B09946F7339846FD3B9B467D027800FB0F17
S11324C06D0A000E0093DAD1002D26D100200121DF
S11324D03300009A7A4F53404246101A4A460A4340
S11324E09200BA581D009746009B2C009A468B46D2
S11324F05B46022B31D15346FF21002438E0002CE7
S113250017D1042399460023984601339B46AFE72D
S1132510FF20002D0BD10221DAE7280001F00CFB8B
S1132520431F9D4076235B42181A0021AFE7032125
S1132530ADE7200001F000FB431F9C4076235B4283
S11325401B1A9846002399469B4691E70C2399460B
S1132550F3339846FC3B9B468AE7032B00D1A5E066
S11325605546012B00D081E00123002100242B409B
S11325706402C905600ADB070843184303B03CBC86
S113258090469946A246AB46F0BD80240023E4035E
S1132590FF21EDE7FF210024EAE70123591A1B2953
S11325A066DD019A134000210024E1E78023DB0368
S11325B01C4238D01D4251D01C436402640A3300CB
S11325C0FF21D5E763016C01A3423BD21B26002106
S11325D0013801251F0049005B00002F01DB9C42EC
S11325E001D81B1B2943013E002EF3D11C00631E9E
S11325F09C410C4301007F310029CEDD630704D0E8
S11326000F232340042B00D00434230103D50100FD
S11326102C4B80311C40FE290DDD0123019AFF2142
S113262013400024A4E78023DB031C436402640AF0
S11326303300FF219CE70123019AA401640AC9B273
S1132640134095E71B1B1A260121C2E7009B8B460A
S11326509A4600244CE76302E5D500258024E40370
S11326602C436402640A009BFF2181E70195C1E7C2
S113267023002020CB40411A8C40611E8C411C4316
S1132680630704D00F232340042B00D004346301D8
S113269005D50123019A01211340002468E7012391
S11326A0019AA401640A1340002161E78023DB033B
S11326B01C436402640A5346FF2159E7AC3E000000
S11326C0EC3E0000FFFFFFF7F8B557464E4645467F
S11326D0DE46E0B54702460088467F0A360EC40F40
S11326E0002E47D0FF2E24D0FB008027FF041F4379
S11326F0002399469A467F3E43465D025800DB0F0D
S11327006D0A000E984643D0FF283BD0EB0080258D
S11327100022ED041D437F383618731C41469B4646
S11327204B46614013430F2B64D875489B00C35834
S11327309F46002F42D108239946063BFF269A461E
S1132740DAE74146022A28D0032A00D1CEE0012A42
S113275000D0ACE0114000200022CCB24002D205EF
S1132760400AE407104320433CBC90469946A246E5
S1132770AB46F8BD002F15D104239946033B002630
S11327809A46B9E7FF200222002DC5D00322C3E7F1
S1132790002D19D100200122BEE70124FF220C40A4
S11327A00020DBE7380001F0C7F97626431F9F407D
S11327B000237642361A99469A469DE70C23994699
S11327C0093BFF269A4697E7280001F0B5F9431F15
S11327D09D4076235B42181A00229DE78020002446
S11327E0C003FF22BAE73D005246ABE73D0021009B
S11327F05246A7E73B0C9C462A04120C2B0C1400EF
S1132800604665463F043F0C7C4342435D437B4343
S1132810270C9B18FF18BA4203D980235B029C46FD
S1132820654424043A04240C121993015C1EA34148
S11328303F0C920E7D191A43AD0115432B0104D5AB
S113284001235E466A081D40154332007F32002A88
S113285025DD6B0704D00F232B40042B00D0043557
S11328602B0103D53200274B80321D40FE2A94DC15
S11328700124A801400AD2B20C406FE78020C003B3
S1132880074207D0054205D128434002400A444686
S1132890FF2263E738434002400AFF225EE7012437
S11328A0A31A1B2B05DD0C400022002056E75E46D0
S11328B0CBE72A002020DA40C31A9D402B005D1E7E
S11328C0AB4113435A0704D00F221A40042A00D004
S11328D004335A0104D5012401220C4000203DE7B1
S11328E001249B01580A0C40002237E78020012470
S11328F0C00328434002400A0C40FF222EE7C04692
S11329002C3F0000FFFFFFF7F0B54F46D646464682
S11329104400C0B5C20F47024802400A84466646D6
S11329207B0A4800C90F9A46240E1500DB00000EEE
S11329308946F600FF2800D18FE001214F464F4021
S11329403900914266D0221A002A00DC9DE000285A
S11329503DD1002E00D18BE0511E002900D0B5E0FE
S113296001249B1B5A0144D59B019F09380001F0A7
S1132970E3F805388740844200DD96E0041B3A0002
S113298020200134E240041BA7403B005F1EBB41F2
S1132990002413435A0704D00F221A40042A00D0FB
S11329A004335A0127D50134FF2C00D179E00122E8
S11329B09B015B0AE4B22A405B02E405580AD20791
S11329C0204310431CBC90469946A246F0BDFF2C00
S11329D0E0D08021C9040E431B2A7BDC3100202077
S11329E0D140821A9640721E96410E439B1B5A0197
S11329F0BAD45A07D0D10122DF082A40FF2C33D1A0
S1132A00002F00D1A8E08023DB033B435B025B0A79
S1132A10FF24D1E7211A00294CDD00282AD0FF2CFD
S1132A20B8D08020C00406431B2900DDAFE030008D
S1132A302027C840791A8E40711E8E4106439B1987
S1132A405901D6D50134FF2C00D185E001227A4901
S1132A501A405B080B4013439CE7002E00D070E73C
S1132A606BE73B1EC5D100227B025B0AE4B2A3E7FD
S1132A7014008FE7002E4DD0481E002857D19B1913
S1132A8001245A01B5D50224E0E7002A25D1621CAD
S1132A90D2B2012A72DD9F1B7A0135D5F71A0D00D7
S1132AA064E7012200232A4086E73B00634A241A94
S1132AB013406FE700296CD1611CC8B201284EDDB8
S1132AC0FF2949D09B195B080C0063E7FF2A41D01A
S1132AD00A0081E701269B1B89E7002C1CD0FF28F4
S1132AE021D08024E404524223431B2A00DD96E0D3
S1132AF01C002025D440AA1A93405A1E9341234314
S1132B00F31A04000D002DE7002F00D02EE7002259
S1132B100024A9E70C003DE7002B58D0D243002A3B
S1132B20EED0FF28E1D13300FF240D0032E7FF2966
S1132B3010D0010078E7002B6ED0FF24002E00D1C6
S1132B4028E780225146D203114203D06146114244
S1132B5000D13300FF241DE7FF2400232CE7002CC1
S1132B60E9D1002B63D0002E00D113E79B195A0141
S1132B7000D43EE7314A0C0013400BE7002C1ED171
S1132B80002B2FD1002E4FD033000D0002E7012679
S1132B9055E7002C1FD1002B43D0C94300290BD08B
S1132BA0FF2839D01B2944DC1C002027CC40791A8B
S1132BB08B40591E8B4123439B19040040E7002B93
S1132BC01AD1002E24D180270022FF031BE73300F3
S1132BD004000D00DEE6FF281ED08024E4044942F0
S1132BE02343DFE7002E00D1D4E69F1B7A0100D4F3
S1132BF037E7F31A0D00CDE6FF24002E00D1C9E615
S1132C0080225046D2031042A4D060461042A1D183
S1132C1033000D00FF24BDE63300FF24BAE6012390
S1132C206EE733000400B5E6002700221CE73300FA
S1132C30B0E60123C0E7C046FFFFFF7DFFFFFFFBB7
S1132C4041024300C20F490A1B0E00207E2B0DDDFA
S1132C509D2B0CDC802000040143952B0ADC96207C
S1132C60C31AD9404842002A00D108007047034BD8
S1132C70D018FBE7963B9940F4E7C046FFFFFF7F7F
S1132C8070B5002830D0C317C4185C40C50F2000AD
S1132C9000F052FF9E231B1A962B0DDC9622D21AAB
S1132CA094402A006402640ADBB26402DB05600A11
S1132CB0D2071843104370BD992B19DC9922D21AFC
S1132CC0002A29DD94402200144C1440510704D0FA
S1132CD00F210A40042A00D00434620113D4A40151
S1132CE0640ADBB22A00E0E7002200230024DCE7C8
S1132CF005222100121AD140B922D21A9440621E30
S1132D0094410C43DAE7054B2A001C409F23A4019D
S1132D101B1A640ADBB2C8E72200D5E7FFFFFFFBFA
S1132D20F0B557464546DE464E46E0B54C000E0328
S1132D3087B0834692461D008046360B640DCF0F44
S1132D40002C4FD06F4B9C4235D08023420F1B0484
S1132D50F600134333439946C30098466A4B002652
S1132D609C460023644403932B031B0B9B466B007C
S1132D70ED0F50465B0D01955ED0624A934253D0ED
S1132D805A46D1008022400F120402430A4393465C
S1132D905246D1005C4A944600226344380068409D
S1132DA084460290E41A16430F2E00D9B4E0574B20
S1132DB0B6009B599F460300334399466CD10023C8
S1132DC09846023308260393CEE7CB464146039A3E
S1132DD00197022A65D1019B4A4C9C46002300229C
S1132DE098466BE00300334399464ED0002E00D141
S1132DF0BCE1300000F0A0FE03000B3B1C2B00DD07
S1132E00ACE11D22D31A5A460100DA4008398E403B
S1132E101300334399465B468B40984600233C4C51
S1132E200026241A03939FE751465A46114329D199
S1132E30002293460232B1E7594601431ED05B4655
S1132E40002B00D19EE1584600F076FE03000B3BB8
S1132E501C2B00DD8FE102005946083A91408B4655
S1132E601D21CB1A5146D9400B0059460B435146FC
S1132E709B469140264B00221B1A8FE70023012218
S1132E809B468BE75146032288E70023984601338B
S1132E9004260024039367E70323B14603930C2617
S1132EA062E7032A00D15CE2019B012A00D0E4E13D
S1132EB013409C460023002400229846002112035C
S1132EC0130B0A0D12051A432305124C40462240E7
S1132ED0134362465B00D2075B081343190007B033
S1132EE03CBC90469946A246AB46F0BD00238022E6
S1132EF09C4612039846034CE0E70023014C002251
S1132F009846DBE7FF07000001FCFFFF6C3F000071
S1132F100DFCFFFFFFFF0F80D94500D939E100D137
S1132F2034E1002346464D469A46013C5B460A0E70
S1132F301B021A430B02170C039313041B0C3900D6
S1132F40280090460193FFF741F80200019B834655
S1132F505A43280039009146FFF7BEF8350C09049E
S1132F600D43A9450DD95B464544013BA84500D90D
S1132F703AE1A94500D837E102235B429C46454427
S1132F80E3444B46EB1A390018000493FFF71EF88C
S1132F90019B05004343390004989946FFF79CF8C8
S1132FA0330409041B0C0B43994509D943446A1E95
S1132FB0984500D91AE1994500D817E1023D4344E8
S1132FC04A469B1A5A4612042A4303999346100C04
S1132FD00A0C914609045A46090C4E460D00120487
S1132FE0120C4543059151437243704352190E0C20
S1132FF0B218954203D980256D02AC466044150C85
S113300009041204090C28185218834200D2CEE095
S113301000D1C8E01D1A53469E1AB245924152424D
S1133020AB1A9A46984500D117E139001800FEF70B
S1133030CDFF019B05004343390050460493FFF73D
S11330404BF804980B04310C1943884209D94144C4
S11330506B1E884500D907E1884200D804E1023D8F
S11330604144049BCB1A180039000493FEF7AEFFC9
S1133070019B82464343390004980193FFF72CF8DF
S113308001980B043104090C194388420DD95346A5
S11330904144013B884500D9E8E0884200D8E5E096
S11330A002235B429C464144E244019B2D04CE1A18
S11330B051462943059D4F462A000B04080C1B0C5E
S11330C05A4345437B4378435B19170CFB189D42D5
S11330D003D980256D02AC4660441D0C12041B0408
S11330E0120C28189B18864200D293E000D18EE07F
S11330F001231943A04BE318002B00DC99E04A0795
S113310000D09EE05A46D20106D55A469B4B1A403F
S113311080239346DB00E318994A934268DD012338
S1133120029A984C1A400023944698460022C5E619
S113313080224B46120313420AD05B46134206D147
S11331401A431203120BAC4688468E4CB6E64B4625
S11331501A431203120BBC468A4CAFE603005A46CC
S1133160283B9A4000239146984657E6584600F07B
S1133170E3FC203040E603005246283B9A400021FD
S1133180934677E600F0D8FC20305FE6884500D20D
S1133190C7E64B46DE075D0843465B081E434346CD
S11331A0DB079A46C2E60025924500D333E7039E27
S11331B05946B446E244B245AD416D424544EB182C
S11331C00139984507D2984200D97FE000D1BCE08C
S11331D01D1A8B461FE79845FAD1039D5545F2D930
S11331E043468B461D1A16E79B46CAE61500E7E6DA
S11331F05A46C90852070A435B0590465C0D5A4675
S11332000123029952021940120B8C4656E6002BF8
S113321000D16FE746444A1EB04529D911008642C1
S113322000D065E7039A934200D061E762E7012189
S113323049420120C21A382A21DD029B03409C46E0
S113324038E60F220A40042A00D15BE70A00111D68
S1133250914292415242934454E7474BE318002B66
S1133260E5DD01225242F2E71D00FAE69A461CE728
S1133270B04239D86ED011003AE702933AE71F2AD8
S11332803CDC20239B1A0C005846994098404B1E66
S113329099415B46D440D340204308431A00430776
S11332A009D00F230340042B05D00100081D8842D8
S11332B09B415B42D21813023AD50123029A01249E
S11332C01A400023944698460022F7E50221494219
S11332D08C46039DE344AC46E244AA45AD416D42AD
S11332E04544ED182D1A96E68A1E03994D008D4229
S11332F0894149424144761803958FE71F20404293
S1133300C31A5846D8400300202A28D040205D46DE
S1133310821A954029434A1E9141194307230022EA
S11333200B4009D00F2300220B400800042BBDD111
S1133330010053075202120BC9081943012388469E
S11333400299002419408C46B8E55245BED88B46F4
S1133350002560E6039D9D42C6D3110062E7002567
S1133360D8E780225B4612031A43019B1203120B17
S11333709C468846034CA1E5FF030000FFFFFFFEC7
S1133380FE070000FF070000F0B557464546DE463D
S11333904E46E0B50C0398464E00230B87B0070059
S11333A092469B46760DCD0F002E6BD06D4B9E4200
S11333B035D080245B46420F2404DB0014431C43B5
S11333C0C3009946684BA3469C46002300276644E5
S11333D0029343461C035A00DB0F5046240B520D44
S11333E0984600D176E05F4B9A426DD08023410F1E
S11333F01B040B435C49E4008C461C43C3000020BF
S113340062444146B6186940721C019194460743D0
S11334100F2F00D9B0E0554ABF00D25997465B46FA
S11334200343994600D087E000239B4602330827D4
S11334300293CEE742460192022867D0032800D1C6
S11334400EE2012800D062E1002300240022994604
S113345001990140CDB2002112030B0D120B1B0583
S11334601343434A240513401C436400ED076408D6
S11334702C434846210007B03CBC90469946A246DE
S1133480AB46F0BD034399464FD05B46002B00D1B9
S113349089E1584600F050FB03000B3B1C2B00DD78
S11334A07AE11D22D31A3A0001005C46DA40083959
S11334B08C4013008F4023439B46B94600232D4E76
S11334C00027361A029384E7534623432AD1002463
S11334D0022096E75346234320D0002C00D157E125
S11334E0200000F029FB03000B3B1C2B00DD49E10D
S11334F01D21CB1A51460200D9405346083A944044
S113350093400C431B4A121A00207AE70125019BC1
S1133510144C1D400023002299469CE700240022FD
S113352001206EE7534603206BE700239B460133DB
S11335300427002602934CE7032381460C270293B9
S113354047E780220023002512039946054C82E7B1
S11335505C464B4602986FE75C464B4601950298E1
S11335606AE7C046FF07000001FCFFFFAC3F000014
S1133570FFFF0F800DFCFFFF4A464946170C1A0C4B
S11335801B041B0C08041900000C41431500884659
S113359019007D4379430395894629001500454365
S11335A04D44029545462D0CAA46029D5544A94515
S11335B006D98A46802149028946CA445146039164
S11335C0290C0491414609042D04090C884629005C
S11335D0250C24044144240C0591210041438846D0
S11335E0210079438A466843414650448146080C89
S11335F048446F43824503D98021490289464F4498
S1133600010C894639004944029141460F0404994A
S11336103F0C88460004C019804441460491594631
S11336200F0C0904090C884659438A463900514352
S1133630894641464A435146090C8B467B43D2187E
S11336405A44934203D980235B029B46D944514692
S11336500904090C8A46414661437C43130C120455
S11336604B445244A1468A463C0041466C434D4378
S113367051464D440F0C7D19A94503D980214902B7
S113368088464444049F0399B84641448B46834585
S1133690804141428846514608042F04000C3F18DB
S11336A05846029910188946904292414F44BA46AE
S11336B0524299469346C244D144CB448F42BF41BF
S11336C0C245894199459B41934592417F42494274
S11336D02D0C52420F435B4213437F19FF185B4684
S11336E03C19DB0D059A64021C43430213435D1E1F
S11336F0AB415A46C00D034352021343E20156D56F
S113370001205A0803401343E207134364085A484C
S1133710604400284DDD5A0709D00F221A40042ABC
S113372005D01A1D9A429B415B42E4181300E20142
S113373004D58020514AC00014406044504A90424D
S113374000DDE3E60125DB0862071A436402019BFE
S11337509146220B4405640D1D407CE680225946A7
S11337601203114208D0144206D122431203120B51
S113377045469946434C6EE65B461A431203120BC8
S1133780404C68E603005446283B9C400023B9E6BD
S113379000F0D2F92030A6E60300283B9F40002326
S11337A0BB4699468AE600F0C7F9203074E6B44671
S11337B0ADE701252A1A382A06DD019B00241D40A5
S11337C000230022994646E61F2A21DC20252000FA
S11337D0AD1A1E00AB40A840D6405D1EAB4130433D
S11337E01843D440430709D00F230340042B05D0CA
S11337F00300181D98429B415B42E418230221D523
S11338000125019B01241D4000230022994622E644
S11338101F2521006D42281AC1400800202A1DD00E
S11338205F35AA1A944023435C1EA3410725034332
S11338301D400022002D09D00F2200241A40180038
S1133840042AD6D1030065076402220BDB082B434C
S113385001259946019B00241D40FCE50024E2E774
S1133860802201251203224301991203120B0D40F9
S11338709946044CEFE5C046FF030000FFFFFFFE3E
S1133880FE070000FF07000070B5002830D0C31702
S1133890C4185C40C50F200000F04EF9174B184ABD
S11338A01B1AD21A1F2A18DD164AD21A9440002273
S11338B024035B05240B5B0D0021100024030A0D77
S11338C0240B12052243104C1B05224013435B00BA
S11338D0ED075B082B43190070BD210091400A00DD
S11338E00B21081AC4405B052403240B5B0DE3E79A
S11338F00025002300240022DEE7C0461E04000049
S11339003304000013040000FFFF0F804100090E80
S11339104B1C70B5DBB24602750AC40F012B14DDD3
S1133920E0239B006D07360BCB1800210A0D2800FD
S113393012051C4D32435B052A405B0813435B00B0
S1133940E4075B082343190070BD002914D1002D3E
S11339501ED0280000F0F0F80A281CDC0B232A00F3
S11339601B1ADA40030015339D400F4B12031B1A38
S11339705B05160B5B0DD8E7002D06D0320B8026B5
S113398036036D071643094BCFE7084B0026CCE7F7
S113399000230026C9E703002A000B3B9A400025B8
S11339A0E3E7C046FFFF0F8089030000FF07000024
S11339B0F0B54C00640D0B03621C450F5B0A520505
S11339C02B43C90FC500520D012A28DD3A4AA61817
S11339D0FE2E1BDC002E3EDD80010200501E8241C3
S11339E06D0F2A43DB0013435A0704D00F221A40F9
S11339F0042A00D004338022D2041A405AD001365B
S1133A00FF2E03D09B015B0AF4B201E0FF240023E4
S1133A105802E405400AC90720430843F0BD002CBE
S1133A2007D01D43F2D08020DB0080040343FF262F
S1133A30DAE72B4303D00523DB08FF2C03D05B021A
S1133A405B0AE4B2E4E7002B32D08020C0030343D6
S1133A505B025B0ADCE73200173214DB80221E278C
S1133A6012041343BF1B1F2F0FDC144A94466444F3
S1133A702A00A5402E00A340751EAE41FA403343F0
S1133A8013430026B0E70024D5E702225242961BD6
S1133A901A00F240202F09D0094884466444A34008
S1133AA02B435D1EAB41002613439DE70023F7E73C
S1133AB00023ADE73400BFE780FCFFFF82FCFFFF7B
S1133AC0A2FCFFFF8446081C6146FFE71FB500F017
S1133AD0B7F8002801D40021C8421FBD10B500F07A
S1133AE049F84042013010BD10B500F0A9F8002893
S1133AF001DB002010BD012010BDC04610B500F050
S1133B009FF8002801DD002010BD012010BDC04633
S1133B1010B500F055F8002801DC002010BD01208C
S1133B2010BDC04610B500F04BF8002801DA0020A3
S1133B3010BD012010BDC0461C2101231B04984266
S1133B4001D3000C10391B0A984201D3000A08392A
S1133B501B09984201D30009043902A2105C4018E1
S1133B607047C04604030202010101010000000085
S1133B700000000070B5420045024E024C00C30F25
S1133B806D0A120E760A240EC90F0120FF2A06D0F0
S1133B90FF2C03D0A24201D1B54206D070BD002D46
S1133BA0FCD1FF2CFAD1002EF8D18B4206D0012093
S1133BB0002AF3D12800451EA841EFE70020EDE7D5
S1133BC0F0B5420045024C02C30F48006D0A120EC4
S1133BD0640A000EC90FFF2A1ED0FF2821D0002A34
S1133BE00AD16E426E41F6B200280FD1002C0DD1DD
S1133BF00020002D09D005E0002801D1002C01D0BF
S1133C008B4211D0012158420843F0BD002EF7D059
S1133C10012001390843F8E7002DDED0022040429C
S1133C20F3E7002CDBD0F9E78242EBDC04DBA542AE
S1133C30E8D80020A542E8D20121581E0843E4E751
S1133C40F0B542004D024C004602760A120EC30F34
S1133C506D0A240EC90FFF2A16D0FF2C18D0002A93
S1133C600AD170427041C0B2002C15D0002805D092
S1133C70012001390843F0BD002C13D0994214D01F
S1133C8001205B421843F6E70220002EF3D1E4E75B
S1133C900220002DEFD1E2E7002DE7D10020002E15
S1133CA0E9D0EDE7002DE9D1EAE7A24206DCDFDB4B
S1133CB0AE4203D80020AE42DAD3DCE70120494209
S1133CC00843D8E770B500260C4D0D4C641BA410B6
S1133CD0A64209D1002600F089F90A4D0A4C641B5A
S1133CE0A410A64205D170BDB300EB589847013625
S1133CF0EEE7B300EB5898470136F2E7F83F0000CF
S1133D00F83F0000F83F0000FC3F0000002310B51E
S1133D109A4200D110BDCC5CC4540133F8E70000D2
S1133D20E0010000EE010000FC0100000A020000B6
S1133D301802000002000000030000002800000038
S1133D402900000004000000050000000600000037
S1133D5007000000200000002100000022000000F5
S1133D6023000000240000002500000026000000BD
S1133D702700000008000000090000000A000000FD
S1133D800B000000FFFF0000FFFF0000FFFF00002A
S1133D90FFFF0000C8050000CE050000CE050000AE
S1133DA0CE050000CE050000CE050000CE050000C3
S1133DB0CE050000CE050000CE050000CE050000B3
S1133DC0CE050000CE050000CE050000CE050000A3
S1133DD0CE050000A6050000CE050000CE050000BB
S1133DE0CE050000CE050000CE050000CE05000083
S1133DF0CE050000CE050000CE050000CE05000073
S1133E00CE050000CE050000CE050000CE05000062
S1133E10CE050000C2050000CE050000CE0500005E
S1133E20CE050000CE050000CE050000CE05000042
S1133E30CE050000CE050000CE050000CE05000032
S1133E40CE050000CE050000CE050000CE05000022
S1133E50CE050000BC050000640500007A050000E2
S1133E60900500004A050000F40C0000020D00005B
S1133E70100D00001E0D00002C0D00000014004267
S1133E8000180042001C004219191A00200000000A
S1133E904000000080000000FFFFFF00FFFFFF0064
S1133EA0FFFF00000402020008040200C425000011
S1133EB094250000A6250000E8240000A6250000A3
S1133EC08A250000A6250000E824000094250000AF
S1133ED0942500008A250000E8240000F024000056
S1133EE0F0240000F0240000AC250000942500001C
S1133EF094250000682500004C2600006825000079
S1133F008A250000682500004C2600009425000046
S1133F10942500008A2500004C260000F0240000AF
S1133F20F0240000F024000056260000F4270000CE
S1133F30442700004427000042270000E627000031
S1133F40E6270000DC27000042270000E6270000E7
S1133F50DC270000E627000042270000EC270000D1
S1133F60EC270000EC2700007C280000182F00003C
S1133F70FA2E0000B42E0000D22D0000B42E000052
S1133F80EC2E0000B42E0000D22D0000FA2E00000A
S1133F90FA2E0000EC2E0000D22D0000CA2D0000E5
S1133FA0CA2D0000CA2D0000303100007835000011
S1133FB03834000038340000343400005035000038
S1133FC05035000042350000343400005035000004
S1133FD042350000503500003434000058350000EC
S1133FE058350000583500005C370000F8B5C0466D
S1133FF0F8BC08BC9E467047DD000000F8B5C0461A
S10F4000F8BC08BC9E467047B5000000E8
S107400C01000000AB
S903176D78
